{
	"Inheritance.sol": {
		"BaseInherit": {
			"abi": [
				{
					"anonymous": false,
					"inputs": [
						{
							"indexed": false,
							"internalType": "string",
							"name": "msg",
							"type": "string"
						}
					],
					"name": "Log",
					"type": "event"
				},
				{
					"inputs": [],
					"name": "hello",
					"outputs": [],
					"stateMutability": "nonpayable",
					"type": "function"
				},
				{
					"inputs": [],
					"name": "say",
					"outputs": [],
					"stateMutability": "nonpayable",
					"type": "function"
				},
				{
					"inputs": [],
					"name": "sing",
					"outputs": [],
					"stateMutability": "nonpayable",
					"type": "function"
				}
			],
			"devdoc": {
				"kind": "dev",
				"methods": {},
				"version": 1
			},
			"evm": {
				"assembly": "    /* \"Inheritance.sol\":682:972  contract BaseInherit {... */\n  mstore(0x40, 0x80)\n  callvalue\n  dup1\n  iszero\n  tag_1\n  jumpi\n  0x00\n  dup1\n  revert\ntag_1:\n  pop\n  dataSize(sub_0)\n  dup1\n  dataOffset(sub_0)\n  0x00\n  codecopy\n  0x00\n  return\nstop\n\nsub_0: assembly {\n        /* \"Inheritance.sol\":682:972  contract BaseInherit {... */\n      mstore(0x40, 0x80)\n      callvalue\n      dup1\n      iszero\n      tag_1\n      jumpi\n      0x00\n      dup1\n      revert\n    tag_1:\n      pop\n      jumpi(tag_2, lt(calldatasize, 0x04))\n      shr(0xe0, calldataload(0x00))\n      dup1\n      0x19ff1d21\n      eq\n      tag_3\n      jumpi\n      dup1\n      0x954ab4b2\n      eq\n      tag_4\n      jumpi\n      dup1\n      0xb4ba349f\n      eq\n      tag_5\n      jumpi\n    tag_2:\n      0x00\n      dup1\n      revert\n        /* \"Inheritance.sol\":742:816  function hello() public virtual {... */\n    tag_3:\n      tag_6\n      tag_7\n      jump\t// in\n    tag_6:\n      stop\n        /* \"Inheritance.sol\":824:891  function say() public virtual {... */\n    tag_4:\n      tag_8\n      tag_9\n      jump\t// in\n    tag_8:\n      stop\n        /* \"Inheritance.sol\":901:967  function sing() public virtual {... */\n    tag_5:\n      tag_10\n      tag_11\n      jump\t// in\n    tag_10:\n      stop\n        /* \"Inheritance.sol\":742:816  function hello() public virtual {... */\n    tag_7:\n        /* \"Inheritance.sol\":790:808  Log(\"hello world\") */\n      0xcf34ef537ac33ee1ac626ca1587a0a7e8e51561e5514f8cb36afa1c5102b3bab\n      mload(0x40)\n      tag_13\n      swap1\n      tag_14\n      jump\t// in\n    tag_13:\n      mload(0x40)\n      dup1\n      swap2\n      sub\n      swap1\n      log1\n        /* \"Inheritance.sol\":742:816  function hello() public virtual {... */\n      jump\t// out\n        /* \"Inheritance.sol\":824:891  function say() public virtual {... */\n    tag_9:\n        /* \"Inheritance.sol\":870:883  Log(\"saying\") */\n      0xcf34ef537ac33ee1ac626ca1587a0a7e8e51561e5514f8cb36afa1c5102b3bab\n      mload(0x40)\n      tag_16\n      swap1\n      tag_17\n      jump\t// in\n    tag_16:\n      mload(0x40)\n      dup1\n      swap2\n      sub\n      swap1\n      log1\n        /* \"Inheritance.sol\":824:891  function say() public virtual {... */\n      jump\t// out\n        /* \"Inheritance.sol\":901:967  function sing() public virtual {... */\n    tag_11:\n        /* \"Inheritance.sol\":948:959  Log(\"sing\") */\n      0xcf34ef537ac33ee1ac626ca1587a0a7e8e51561e5514f8cb36afa1c5102b3bab\n      mload(0x40)\n      tag_19\n      swap1\n      tag_20\n      jump\t// in\n    tag_19:\n      mload(0x40)\n      dup1\n      swap2\n      sub\n      swap1\n      log1\n        /* \"Inheritance.sol\":901:967  function sing() public virtual {... */\n      jump\t// out\n        /* \"#utility.yul\":7:176   */\n    tag_21:\n        /* \"#utility.yul\":91:102   */\n      0x00\n        /* \"#utility.yul\":125:131   */\n      dup3\n        /* \"#utility.yul\":120:123   */\n      dup3\n        /* \"#utility.yul\":113:132   */\n      mstore\n        /* \"#utility.yul\":165:169   */\n      0x20\n        /* \"#utility.yul\":160:163   */\n      dup3\n        /* \"#utility.yul\":156:170   */\n      add\n        /* \"#utility.yul\":141:170   */\n      swap1\n      pop\n        /* \"#utility.yul\":7:176   */\n      swap3\n      swap2\n      pop\n      pop\n      jump\t// out\n        /* \"#utility.yul\":182:343   */\n    tag_22:\n        /* \"#utility.yul\":322:335   */\n      0x68656c6c6f20776f726c64000000000000000000000000000000000000000000\n        /* \"#utility.yul\":318:319   */\n      0x00\n        /* \"#utility.yul\":310:316   */\n      dup3\n        /* \"#utility.yul\":306:320   */\n      add\n        /* \"#utility.yul\":299:336   */\n      mstore\n        /* \"#utility.yul\":182:343   */\n      pop\n      jump\t// out\n        /* \"#utility.yul\":349:715   */\n    tag_23:\n        /* \"#utility.yul\":491:494   */\n      0x00\n        /* \"#utility.yul\":512:579   */\n      tag_32\n        /* \"#utility.yul\":576:578   */\n      0x0b\n        /* \"#utility.yul\":571:574   */\n      dup4\n        /* \"#utility.yul\":512:579   */\n      tag_21\n      jump\t// in\n    tag_32:\n        /* \"#utility.yul\":505:579   */\n      swap2\n      pop\n        /* \"#utility.yul\":588:681   */\n      tag_33\n        /* \"#utility.yul\":677:680   */\n      dup3\n        /* \"#utility.yul\":588:681   */\n      tag_22\n      jump\t// in\n    tag_33:\n        /* \"#utility.yul\":706:708   */\n      0x20\n        /* \"#utility.yul\":701:704   */\n      dup3\n        /* \"#utility.yul\":697:709   */\n      add\n        /* \"#utility.yul\":690:709   */\n      swap1\n      pop\n        /* \"#utility.yul\":349:715   */\n      swap2\n      swap1\n      pop\n      jump\t// out\n        /* \"#utility.yul\":721:1140   */\n    tag_14:\n        /* \"#utility.yul\":887:891   */\n      0x00\n        /* \"#utility.yul\":925:927   */\n      0x20\n        /* \"#utility.yul\":914:923   */\n      dup3\n        /* \"#utility.yul\":910:928   */\n      add\n        /* \"#utility.yul\":902:928   */\n      swap1\n      pop\n        /* \"#utility.yul\":974:983   */\n      dup2\n        /* \"#utility.yul\":968:972   */\n      dup2\n        /* \"#utility.yul\":964:984   */\n      sub\n        /* \"#utility.yul\":960:961   */\n      0x00\n        /* \"#utility.yul\":949:958   */\n      dup4\n        /* \"#utility.yul\":945:962   */\n      add\n        /* \"#utility.yul\":938:985   */\n      mstore\n        /* \"#utility.yul\":1002:1133   */\n      tag_35\n        /* \"#utility.yul\":1128:1132   */\n      dup2\n        /* \"#utility.yul\":1002:1133   */\n      tag_23\n      jump\t// in\n    tag_35:\n        /* \"#utility.yul\":994:1133   */\n      swap1\n      pop\n        /* \"#utility.yul\":721:1140   */\n      swap2\n      swap1\n      pop\n      jump\t// out\n        /* \"#utility.yul\":1146:1302   */\n    tag_24:\n        /* \"#utility.yul\":1286:1294   */\n      0x736179696e670000000000000000000000000000000000000000000000000000\n        /* \"#utility.yul\":1282:1283   */\n      0x00\n        /* \"#utility.yul\":1274:1280   */\n      dup3\n        /* \"#utility.yul\":1270:1284   */\n      add\n        /* \"#utility.yul\":1263:1295   */\n      mstore\n        /* \"#utility.yul\":1146:1302   */\n      pop\n      jump\t// out\n        /* \"#utility.yul\":1308:1673   */\n    tag_25:\n        /* \"#utility.yul\":1450:1453   */\n      0x00\n        /* \"#utility.yul\":1471:1537   */\n      tag_38\n        /* \"#utility.yul\":1535:1536   */\n      0x06\n        /* \"#utility.yul\":1530:1533   */\n      dup4\n        /* \"#utility.yul\":1471:1537   */\n      tag_21\n      jump\t// in\n    tag_38:\n        /* \"#utility.yul\":1464:1537   */\n      swap2\n      pop\n        /* \"#utility.yul\":1546:1639   */\n      tag_39\n        /* \"#utility.yul\":1635:1638   */\n      dup3\n        /* \"#utility.yul\":1546:1639   */\n      tag_24\n      jump\t// in\n    tag_39:\n        /* \"#utility.yul\":1664:1666   */\n      0x20\n        /* \"#utility.yul\":1659:1662   */\n      dup3\n        /* \"#utility.yul\":1655:1667   */\n      add\n        /* \"#utility.yul\":1648:1667   */\n      swap1\n      pop\n        /* \"#utility.yul\":1308:1673   */\n      swap2\n      swap1\n      pop\n      jump\t// out\n        /* \"#utility.yul\":1679:2098   */\n    tag_17:\n        /* \"#utility.yul\":1845:1849   */\n      0x00\n        /* \"#utility.yul\":1883:1885   */\n      0x20\n        /* \"#utility.yul\":1872:1881   */\n      dup3\n        /* \"#utility.yul\":1868:1886   */\n      add\n        /* \"#utility.yul\":1860:1886   */\n      swap1\n      pop\n        /* \"#utility.yul\":1932:1941   */\n      dup2\n        /* \"#utility.yul\":1926:1930   */\n      dup2\n        /* \"#utility.yul\":1922:1942   */\n      sub\n        /* \"#utility.yul\":1918:1919   */\n      0x00\n        /* \"#utility.yul\":1907:1916   */\n      dup4\n        /* \"#utility.yul\":1903:1920   */\n      add\n        /* \"#utility.yul\":1896:1943   */\n      mstore\n        /* \"#utility.yul\":1960:2091   */\n      tag_41\n        /* \"#utility.yul\":2086:2090   */\n      dup2\n        /* \"#utility.yul\":1960:2091   */\n      tag_25\n      jump\t// in\n    tag_41:\n        /* \"#utility.yul\":1952:2091   */\n      swap1\n      pop\n        /* \"#utility.yul\":1679:2098   */\n      swap2\n      swap1\n      pop\n      jump\t// out\n        /* \"#utility.yul\":2104:2258   */\n    tag_26:\n        /* \"#utility.yul\":2244:2250   */\n      0x73696e6700000000000000000000000000000000000000000000000000000000\n        /* \"#utility.yul\":2240:2241   */\n      0x00\n        /* \"#utility.yul\":2232:2238   */\n      dup3\n        /* \"#utility.yul\":2228:2242   */\n      add\n        /* \"#utility.yul\":2221:2251   */\n      mstore\n        /* \"#utility.yul\":2104:2258   */\n      pop\n      jump\t// out\n        /* \"#utility.yul\":2264:2629   */\n    tag_27:\n        /* \"#utility.yul\":2406:2409   */\n      0x00\n        /* \"#utility.yul\":2427:2493   */\n      tag_44\n        /* \"#utility.yul\":2491:2492   */\n      0x04\n        /* \"#utility.yul\":2486:2489   */\n      dup4\n        /* \"#utility.yul\":2427:2493   */\n      tag_21\n      jump\t// in\n    tag_44:\n        /* \"#utility.yul\":2420:2493   */\n      swap2\n      pop\n        /* \"#utility.yul\":2502:2595   */\n      tag_45\n        /* \"#utility.yul\":2591:2594   */\n      dup3\n        /* \"#utility.yul\":2502:2595   */\n      tag_26\n      jump\t// in\n    tag_45:\n        /* \"#utility.yul\":2620:2622   */\n      0x20\n        /* \"#utility.yul\":2615:2618   */\n      dup3\n        /* \"#utility.yul\":2611:2623   */\n      add\n        /* \"#utility.yul\":2604:2623   */\n      swap1\n      pop\n        /* \"#utility.yul\":2264:2629   */\n      swap2\n      swap1\n      pop\n      jump\t// out\n        /* \"#utility.yul\":2635:3054   */\n    tag_20:\n        /* \"#utility.yul\":2801:2805   */\n      0x00\n        /* \"#utility.yul\":2839:2841   */\n      0x20\n        /* \"#utility.yul\":2828:2837   */\n      dup3\n        /* \"#utility.yul\":2824:2842   */\n      add\n        /* \"#utility.yul\":2816:2842   */\n      swap1\n      pop\n        /* \"#utility.yul\":2888:2897   */\n      dup2\n        /* \"#utility.yul\":2882:2886   */\n      dup2\n        /* \"#utility.yul\":2878:2898   */\n      sub\n        /* \"#utility.yul\":2874:2875   */\n      0x00\n        /* \"#utility.yul\":2863:2872   */\n      dup4\n        /* \"#utility.yul\":2859:2876   */\n      add\n        /* \"#utility.yul\":2852:2899   */\n      mstore\n        /* \"#utility.yul\":2916:3047   */\n      tag_47\n        /* \"#utility.yul\":3042:3046   */\n      dup2\n        /* \"#utility.yul\":2916:3047   */\n      tag_27\n      jump\t// in\n    tag_47:\n        /* \"#utility.yul\":2908:3047   */\n      swap1\n      pop\n        /* \"#utility.yul\":2635:3054   */\n      swap2\n      swap1\n      pop\n      jump\t// out\n\n    auxdata: 0xa264697066735822122084f58d1c0c596a9b5c6b7a7271d5521de20c5b84bc326e69f5151ad8791eab1264736f6c634300081a0033\n}\n",
				"bytecode": {
					"linkReferences": {},
					"object": "6080604052348015600e575f80fd5b506102848061001c5f395ff3fe608060405234801561000f575f80fd5b506004361061003f575f3560e01c806319ff1d2114610043578063954ab4b21461004d578063b4ba349f14610057575b5f80fd5b61004b610061565b005b610055610098565b005b61005f6100cf565b005b7fcf34ef537ac33ee1ac626ca1587a0a7e8e51561e5514f8cb36afa1c5102b3bab60405161008e90610160565b60405180910390a1565b7fcf34ef537ac33ee1ac626ca1587a0a7e8e51561e5514f8cb36afa1c5102b3bab6040516100c5906101c8565b60405180910390a1565b7fcf34ef537ac33ee1ac626ca1587a0a7e8e51561e5514f8cb36afa1c5102b3bab6040516100fc90610230565b60405180910390a1565b5f82825260208201905092915050565b7f68656c6c6f20776f726c640000000000000000000000000000000000000000005f82015250565b5f61014a600b83610106565b915061015582610116565b602082019050919050565b5f6020820190508181035f8301526101778161013e565b9050919050565b7f736179696e6700000000000000000000000000000000000000000000000000005f82015250565b5f6101b2600683610106565b91506101bd8261017e565b602082019050919050565b5f6020820190508181035f8301526101df816101a6565b9050919050565b7f73696e67000000000000000000000000000000000000000000000000000000005f82015250565b5f61021a600483610106565b9150610225826101e6565b602082019050919050565b5f6020820190508181035f8301526102478161020e565b905091905056fea264697066735822122084f58d1c0c596a9b5c6b7a7271d5521de20c5b84bc326e69f5151ad8791eab1264736f6c634300081a0033",
					"opcodes": "PUSH1 0x80 PUSH1 0x40 MSTORE CALLVALUE DUP1 ISZERO PUSH1 0xE JUMPI PUSH0 DUP1 REVERT JUMPDEST POP PUSH2 0x284 DUP1 PUSH2 0x1C PUSH0 CODECOPY PUSH0 RETURN INVALID PUSH1 0x80 PUSH1 0x40 MSTORE CALLVALUE DUP1 ISZERO PUSH2 0xF JUMPI PUSH0 DUP1 REVERT JUMPDEST POP PUSH1 0x4 CALLDATASIZE LT PUSH2 0x3F JUMPI PUSH0 CALLDATALOAD PUSH1 0xE0 SHR DUP1 PUSH4 0x19FF1D21 EQ PUSH2 0x43 JUMPI DUP1 PUSH4 0x954AB4B2 EQ PUSH2 0x4D JUMPI DUP1 PUSH4 0xB4BA349F EQ PUSH2 0x57 JUMPI JUMPDEST PUSH0 DUP1 REVERT JUMPDEST PUSH2 0x4B PUSH2 0x61 JUMP JUMPDEST STOP JUMPDEST PUSH2 0x55 PUSH2 0x98 JUMP JUMPDEST STOP JUMPDEST PUSH2 0x5F PUSH2 0xCF JUMP JUMPDEST STOP JUMPDEST PUSH32 0xCF34EF537AC33EE1AC626CA1587A0A7E8E51561E5514F8CB36AFA1C5102B3BAB PUSH1 0x40 MLOAD PUSH2 0x8E SWAP1 PUSH2 0x160 JUMP JUMPDEST PUSH1 0x40 MLOAD DUP1 SWAP2 SUB SWAP1 LOG1 JUMP JUMPDEST PUSH32 0xCF34EF537AC33EE1AC626CA1587A0A7E8E51561E5514F8CB36AFA1C5102B3BAB PUSH1 0x40 MLOAD PUSH2 0xC5 SWAP1 PUSH2 0x1C8 JUMP JUMPDEST PUSH1 0x40 MLOAD DUP1 SWAP2 SUB SWAP1 LOG1 JUMP JUMPDEST PUSH32 0xCF34EF537AC33EE1AC626CA1587A0A7E8E51561E5514F8CB36AFA1C5102B3BAB PUSH1 0x40 MLOAD PUSH2 0xFC SWAP1 PUSH2 0x230 JUMP JUMPDEST PUSH1 0x40 MLOAD DUP1 SWAP2 SUB SWAP1 LOG1 JUMP JUMPDEST PUSH0 DUP3 DUP3 MSTORE PUSH1 0x20 DUP3 ADD SWAP1 POP SWAP3 SWAP2 POP POP JUMP JUMPDEST PUSH32 0x68656C6C6F20776F726C64000000000000000000000000000000000000000000 PUSH0 DUP3 ADD MSTORE POP JUMP JUMPDEST PUSH0 PUSH2 0x14A PUSH1 0xB DUP4 PUSH2 0x106 JUMP JUMPDEST SWAP2 POP PUSH2 0x155 DUP3 PUSH2 0x116 JUMP JUMPDEST PUSH1 0x20 DUP3 ADD SWAP1 POP SWAP2 SWAP1 POP JUMP JUMPDEST PUSH0 PUSH1 0x20 DUP3 ADD SWAP1 POP DUP2 DUP2 SUB PUSH0 DUP4 ADD MSTORE PUSH2 0x177 DUP2 PUSH2 0x13E JUMP JUMPDEST SWAP1 POP SWAP2 SWAP1 POP JUMP JUMPDEST PUSH32 0x736179696E670000000000000000000000000000000000000000000000000000 PUSH0 DUP3 ADD MSTORE POP JUMP JUMPDEST PUSH0 PUSH2 0x1B2 PUSH1 0x6 DUP4 PUSH2 0x106 JUMP JUMPDEST SWAP2 POP PUSH2 0x1BD DUP3 PUSH2 0x17E JUMP JUMPDEST PUSH1 0x20 DUP3 ADD SWAP1 POP SWAP2 SWAP1 POP JUMP JUMPDEST PUSH0 PUSH1 0x20 DUP3 ADD SWAP1 POP DUP2 DUP2 SUB PUSH0 DUP4 ADD MSTORE PUSH2 0x1DF DUP2 PUSH2 0x1A6 JUMP JUMPDEST SWAP1 POP SWAP2 SWAP1 POP JUMP JUMPDEST PUSH32 0x73696E6700000000000000000000000000000000000000000000000000000000 PUSH0 DUP3 ADD MSTORE POP JUMP JUMPDEST PUSH0 PUSH2 0x21A PUSH1 0x4 DUP4 PUSH2 0x106 JUMP JUMPDEST SWAP2 POP PUSH2 0x225 DUP3 PUSH2 0x1E6 JUMP JUMPDEST PUSH1 0x20 DUP3 ADD SWAP1 POP SWAP2 SWAP1 POP JUMP JUMPDEST PUSH0 PUSH1 0x20 DUP3 ADD SWAP1 POP DUP2 DUP2 SUB PUSH0 DUP4 ADD MSTORE PUSH2 0x247 DUP2 PUSH2 0x20E JUMP JUMPDEST SWAP1 POP SWAP2 SWAP1 POP JUMP INVALID LOG2 PUSH5 0x6970667358 0x22 SLT KECCAK256 DUP5 CREATE2 DUP14 SHR 0xC MSIZE PUSH11 0x9B5C6B7A7271D5521DE20C JUMPDEST DUP5 0xBC ORIGIN PUSH15 0x69F5151AD8791EAB1264736F6C6343 STOP ADDMOD BYTE STOP CALLER "
				},
				"gasEstimates": {
					"creation": {
						"codeDepositCost": "128800",
						"executionCost": "175",
						"totalCost": "128975"
					},
					"external": {
						"hello()": "1918",
						"say()": "1940",
						"sing()": "1962"
					}
				},
				"methodIdentifiers": {
					"hello()": "19ff1d21",
					"say()": "954ab4b2",
					"sing()": "b4ba349f"
				}
			},
			"storageLayout": {
				"storage": [],
				"types": null
			},
			"userdoc": {
				"kind": "user",
				"methods": {},
				"version": 1
			}
		}
	}
}