{
	"ControllFlow.sol": {
		"ControllFlow": {
			"abi": [
				{
					"inputs": [],
					"name": "dowhileTest",
					"outputs": [
						{
							"internalType": "uint256",
							"name": "",
							"type": "uint256"
						}
					],
					"stateMutability": "pure",
					"type": "function"
				},
				{
					"inputs": [],
					"name": "forLoopTest",
					"outputs": [
						{
							"internalType": "uint256",
							"name": "",
							"type": "uint256"
						}
					],
					"stateMutability": "pure",
					"type": "function"
				},
				{
					"inputs": [
						{
							"internalType": "uint256",
							"name": "_number",
							"type": "uint256"
						}
					],
					"name": "ifelseTest",
					"outputs": [
						{
							"internalType": "bool",
							"name": "",
							"type": "bool"
						}
					],
					"stateMutability": "pure",
					"type": "function"
				},
				{
					"inputs": [
						{
							"internalType": "uint256[]",
							"name": "a",
							"type": "uint256[]"
						}
					],
					"name": "insertSort",
					"outputs": [
						{
							"internalType": "uint256[]",
							"name": "",
							"type": "uint256[]"
						}
					],
					"stateMutability": "pure",
					"type": "function"
				},
				{
					"inputs": [
						{
							"internalType": "uint256",
							"name": "x",
							"type": "uint256"
						},
						{
							"internalType": "uint256",
							"name": "y",
							"type": "uint256"
						}
					],
					"name": "ternaryTest",
					"outputs": [
						{
							"internalType": "uint256",
							"name": "",
							"type": "uint256"
						}
					],
					"stateMutability": "pure",
					"type": "function"
				},
				{
					"inputs": [],
					"name": "whileTest",
					"outputs": [
						{
							"internalType": "uint256",
							"name": "",
							"type": "uint256"
						}
					],
					"stateMutability": "pure",
					"type": "function"
				}
			],
			"devdoc": {
				"kind": "dev",
				"methods": {},
				"version": 1
			},
			"evm": {
				"assembly": "    /* \"ControllFlow.sol\":61:1554  contract ControllFlow{... */\n  mstore(0x40, 0x80)\n  callvalue\n  dup1\n  iszero\n  tag_1\n  jumpi\n  0x00\n  dup1\n  revert\ntag_1:\n  pop\n  dataSize(sub_0)\n  dup1\n  dataOffset(sub_0)\n  0x00\n  codecopy\n  0x00\n  return\nstop\n\nsub_0: assembly {\n        /* \"ControllFlow.sol\":61:1554  contract ControllFlow{... */\n      mstore(0x40, 0x80)\n      callvalue\n      dup1\n      iszero\n      tag_1\n      jumpi\n      0x00\n      dup1\n      revert\n    tag_1:\n      pop\n      jumpi(tag_2, lt(calldatasize, 0x04))\n      shr(0xe0, calldataload(0x00))\n      dup1\n      0x28766320\n      eq\n      tag_3\n      jumpi\n      dup1\n      0x5d14639d\n      eq\n      tag_4\n      jumpi\n      dup1\n      0x6f4a5a1a\n      eq\n      tag_5\n      jumpi\n      dup1\n      0xb0cfa9fc\n      eq\n      tag_6\n      jumpi\n      dup1\n      0xb23d97f2\n      eq\n      tag_7\n      jumpi\n      dup1\n      0xd4271de5\n      eq\n      tag_8\n      jumpi\n    tag_2:\n      0x00\n      dup1\n      revert\n        /* \"ControllFlow.sol\":979:1091  function ternaryTest(uint256 x, uint256 y) public pure returns(uint256) {... */\n    tag_3:\n      tag_9\n      0x04\n      dup1\n      calldatasize\n      sub\n      dup2\n      add\n      swap1\n      tag_10\n      swap2\n      swap1\n      tag_11\n      jump\t// in\n    tag_10:\n      tag_12\n      jump\t// in\n    tag_9:\n      mload(0x40)\n      tag_13\n      swap2\n      swap1\n      tag_14\n      jump\t// in\n    tag_13:\n      mload(0x40)\n      dup1\n      swap2\n      sub\n      swap1\n      return\n        /* \"ControllFlow.sol\":530:733  function whileTest() public pure returns(uint) {... */\n    tag_4:\n      tag_15\n      tag_16\n      jump\t// in\n    tag_15:\n      mload(0x40)\n      tag_17\n      swap2\n      swap1\n      tag_14\n      jump\t// in\n    tag_17:\n      mload(0x40)\n      dup1\n      swap2\n      sub\n      swap1\n      return\n        /* \"ControllFlow.sol\":111:332  function ifelseTest(uint256 _number) public pure returns(bool){... */\n    tag_5:\n      tag_18\n      0x04\n      dup1\n      calldatasize\n      sub\n      dup2\n      add\n      swap1\n      tag_19\n      swap2\n      swap1\n      tag_20\n      jump\t// in\n    tag_19:\n      tag_21\n      jump\t// in\n    tag_18:\n      mload(0x40)\n      tag_22\n      swap2\n      swap1\n      tag_23\n      jump\t// in\n    tag_22:\n      mload(0x40)\n      dup1\n      swap2\n      sub\n      swap1\n      return\n        /* \"ControllFlow.sol\":342:520  function forLoopTest() public pure returns(uint) {... */\n    tag_6:\n      tag_24\n      tag_25\n      jump\t// in\n    tag_24:\n      mload(0x40)\n      tag_26\n      swap2\n      swap1\n      tag_14\n      jump\t// in\n    tag_26:\n      mload(0x40)\n      dup1\n      swap2\n      sub\n      swap1\n      return\n        /* \"ControllFlow.sol\":1193:1547  function insertSort(uint[] memory a) public pure returns(uint[] memory) {... */\n    tag_7:\n      tag_27\n      0x04\n      dup1\n      calldatasize\n      sub\n      dup2\n      add\n      swap1\n      tag_28\n      swap2\n      swap1\n      tag_29\n      jump\t// in\n    tag_28:\n      tag_30\n      jump\t// in\n    tag_27:\n      mload(0x40)\n      tag_31\n      swap2\n      swap1\n      tag_32\n      jump\t// in\n    tag_31:\n      mload(0x40)\n      dup1\n      swap2\n      sub\n      swap1\n      return\n        /* \"ControllFlow.sol\":743:947  function dowhileTest() public pure returns(uint){... */\n    tag_8:\n      tag_33\n      tag_34\n      jump\t// in\n    tag_33:\n      mload(0x40)\n      tag_35\n      swap2\n      swap1\n      tag_14\n      jump\t// in\n    tag_35:\n      mload(0x40)\n      dup1\n      swap2\n      sub\n      swap1\n      return\n        /* \"ControllFlow.sol\":979:1091  function ternaryTest(uint256 x, uint256 y) public pure returns(uint256) {... */\n    tag_12:\n        /* \"ControllFlow.sol\":1042:1049  uint256 */\n      0x00\n        /* \"ControllFlow.sol\":1074:1075  y */\n      dup2\n        /* \"ControllFlow.sol\":1069:1070  x */\n      dup4\n        /* \"ControllFlow.sol\":1069:1075  x >= y */\n      lt\n      iszero\n        /* \"ControllFlow.sol\":1069:1083  x >= y ? x : y */\n      tag_37\n      jumpi\n        /* \"ControllFlow.sol\":1082:1083  y */\n      dup2\n        /* \"ControllFlow.sol\":1069:1083  x >= y ? x : y */\n      jump(tag_38)\n    tag_37:\n        /* \"ControllFlow.sol\":1078:1079  x */\n      dup3\n        /* \"ControllFlow.sol\":1069:1083  x >= y ? x : y */\n    tag_38:\n        /* \"ControllFlow.sol\":1062:1083  return x >= y ? x : y */\n      swap1\n      pop\n        /* \"ControllFlow.sol\":979:1091  function ternaryTest(uint256 x, uint256 y) public pure returns(uint256) {... */\n      swap3\n      swap2\n      pop\n      pop\n      jump\t// out\n        /* \"ControllFlow.sol\":530:733  function whileTest() public pure returns(uint) {... */\n    tag_16:\n        /* \"ControllFlow.sol\":571:575  uint */\n      0x00\n        /* \"ControllFlow.sol\":588:596  uint sum */\n      dup1\n        /* \"ControllFlow.sol\":599:600  0 */\n      0x00\n        /* \"ControllFlow.sol\":588:600  uint sum = 0 */\n      swap1\n      pop\n        /* \"ControllFlow.sol\":611:617  uint i */\n      0x00\n        /* \"ControllFlow.sol\":634:701  while(i < 10) {... */\n    tag_40:\n        /* \"ControllFlow.sol\":644:646  10 */\n      0x0a\n        /* \"ControllFlow.sol\":640:641  i */\n      dup2\n        /* \"ControllFlow.sol\":640:646  i < 10 */\n      lt\n        /* \"ControllFlow.sol\":634:701  while(i < 10) {... */\n      iszero\n      tag_41\n      jumpi\n        /* \"ControllFlow.sol\":670:671  i */\n      dup1\n        /* \"ControllFlow.sol\":663:671  sum += i */\n      dup3\n      tag_42\n      swap2\n      swap1\n      tag_43\n      jump\t// in\n    tag_42:\n      swap2\n      pop\n        /* \"ControllFlow.sol\":686:689  i++ */\n      dup1\n      dup1\n      tag_44\n      swap1\n      tag_45\n      jump\t// in\n    tag_44:\n      swap2\n      pop\n      pop\n        /* \"ControllFlow.sol\":634:701  while(i < 10) {... */\n      jump(tag_40)\n    tag_41:\n        /* \"ControllFlow.sol\":721:724  sum */\n      dup2\n        /* \"ControllFlow.sol\":713:725  return (sum) */\n      swap3\n      pop\n      pop\n      pop\n        /* \"ControllFlow.sol\":530:733  function whileTest() public pure returns(uint) {... */\n      swap1\n      jump\t// out\n        /* \"ControllFlow.sol\":111:332  function ifelseTest(uint256 _number) public pure returns(bool){... */\n    tag_21:\n        /* \"ControllFlow.sol\":168:172  bool */\n      0x00\n        /* \"ControllFlow.sol\":198:199  0 */\n      dup1\n        /* \"ControllFlow.sol\":187:194  _number */\n      dup3\n        /* \"ControllFlow.sol\":187:199  _number == 0 */\n      sub\n        /* \"ControllFlow.sol\":184:285  if(_number == 0){... */\n      tag_47\n      jumpi\n        /* \"ControllFlow.sol\":223:227  true */\n      0x01\n        /* \"ControllFlow.sol\":215:228  return (true) */\n      swap1\n      pop\n      jump(tag_46)\n        /* \"ControllFlow.sol\":184:285  if(_number == 0){... */\n    tag_47:\n        /* \"ControllFlow.sol\":267:272  false */\n      0x00\n        /* \"ControllFlow.sol\":259:273  return (false) */\n      swap1\n      pop\n        /* \"ControllFlow.sol\":111:332  function ifelseTest(uint256 _number) public pure returns(bool){... */\n    tag_46:\n      swap2\n      swap1\n      pop\n      jump\t// out\n        /* \"ControllFlow.sol\":342:520  function forLoopTest() public pure returns(uint) {... */\n    tag_25:\n        /* \"ControllFlow.sol\":385:389  uint */\n      0x00\n        /* \"ControllFlow.sol\":402:410  uint sum */\n      dup1\n        /* \"ControllFlow.sol\":413:414  0 */\n      0x00\n        /* \"ControllFlow.sol\":402:414  uint sum = 0 */\n      swap1\n      pop\n        /* \"ControllFlow.sol\":429:435  uint i */\n      0x00\n        /* \"ControllFlow.sol\":425:488  for(uint i =0; i < 10; i++) {... */\n    tag_50:\n        /* \"ControllFlow.sol\":444:446  10 */\n      0x0a\n        /* \"ControllFlow.sol\":440:441  i */\n      dup2\n        /* \"ControllFlow.sol\":440:446  i < 10 */\n      lt\n        /* \"ControllFlow.sol\":425:488  for(uint i =0; i < 10; i++) {... */\n      iszero\n      tag_51\n      jumpi\n        /* \"ControllFlow.sol\":475:476  1 */\n      0x01\n        /* \"ControllFlow.sol\":468:476  sum += 1 */\n      dup3\n      tag_53\n      swap2\n      swap1\n      tag_43\n      jump\t// in\n    tag_53:\n      swap2\n      pop\n        /* \"ControllFlow.sol\":448:451  i++ */\n      dup1\n      dup1\n      0x01\n      add\n      swap2\n      pop\n      pop\n        /* \"ControllFlow.sol\":425:488  for(uint i =0; i < 10; i++) {... */\n      jump(tag_50)\n    tag_51:\n      pop\n        /* \"ControllFlow.sol\":508:511  sum */\n      dup1\n        /* \"ControllFlow.sol\":500:512  return (sum) */\n      swap2\n      pop\n      pop\n        /* \"ControllFlow.sol\":342:520  function forLoopTest() public pure returns(uint) {... */\n      swap1\n      jump\t// out\n        /* \"ControllFlow.sol\":1193:1547  function insertSort(uint[] memory a) public pure returns(uint[] memory) {... */\n    tag_30:\n        /* \"ControllFlow.sol\":1250:1263  uint[] memory */\n      0x60\n        /* \"ControllFlow.sol\":1281:1287  uint i */\n      0x00\n        /* \"ControllFlow.sol\":1290:1291  1 */\n      0x01\n        /* \"ControllFlow.sol\":1281:1291  uint i = 1 */\n      swap1\n      pop\n        /* \"ControllFlow.sol\":1276:1521  for (uint i = 1; i < a.length; i++) {... */\n    tag_55:\n        /* \"ControllFlow.sol\":1297:1298  a */\n      dup3\n        /* \"ControllFlow.sol\":1297:1305  a.length */\n      mload\n        /* \"ControllFlow.sol\":1293:1294  i */\n      dup2\n        /* \"ControllFlow.sol\":1293:1305  i < a.length */\n      lt\n        /* \"ControllFlow.sol\":1276:1521  for (uint i = 1; i < a.length; i++) {... */\n      iszero\n      tag_56\n      jumpi\n        /* \"ControllFlow.sol\":1327:1336  uint temp */\n      0x00\n        /* \"ControllFlow.sol\":1339:1340  a */\n      dup4\n        /* \"ControllFlow.sol\":1341:1342  i */\n      dup3\n        /* \"ControllFlow.sol\":1339:1343  a[i] */\n      dup2\n      mload\n      dup2\n      lt\n      tag_58\n      jumpi\n      tag_59\n      tag_60\n      jump\t// in\n    tag_59:\n    tag_58:\n      0x20\n      mul\n      0x20\n      add\n      add\n      mload\n        /* \"ControllFlow.sol\":1327:1343  uint temp = a[i] */\n      swap1\n      pop\n        /* \"ControllFlow.sol\":1358:1364  uint j */\n      0x00\n        /* \"ControllFlow.sol\":1367:1368  i */\n      dup3\n        /* \"ControllFlow.sol\":1358:1368  uint j = i */\n      swap1\n      pop\n        /* \"ControllFlow.sol\":1383:1484  while(j >= 1 && a[j-1] > temp) {... */\n    tag_61:\n        /* \"ControllFlow.sol\":1394:1395  1 */\n      0x01\n        /* \"ControllFlow.sol\":1389:1390  j */\n      dup2\n        /* \"ControllFlow.sol\":1389:1395  j >= 1 */\n      lt\n      iszero\n        /* \"ControllFlow.sol\":1389:1412  j >= 1 && a[j-1] > temp */\n      dup1\n      iszero\n      tag_63\n      jumpi\n      pop\n        /* \"ControllFlow.sol\":1408:1412  temp */\n      dup2\n        /* \"ControllFlow.sol\":1399:1400  a */\n      dup6\n        /* \"ControllFlow.sol\":1403:1404  1 */\n      0x01\n        /* \"ControllFlow.sol\":1401:1402  j */\n      dup4\n        /* \"ControllFlow.sol\":1401:1404  j-1 */\n      tag_64\n      swap2\n      swap1\n      tag_65\n      jump\t// in\n    tag_64:\n        /* \"ControllFlow.sol\":1399:1405  a[j-1] */\n      dup2\n      mload\n      dup2\n      lt\n      tag_66\n      jumpi\n      tag_67\n      tag_60\n      jump\t// in\n    tag_67:\n    tag_66:\n      0x20\n      mul\n      0x20\n      add\n      add\n      mload\n        /* \"ControllFlow.sol\":1399:1412  a[j-1] > temp */\n      gt\n        /* \"ControllFlow.sol\":1389:1412  j >= 1 && a[j-1] > temp */\n    tag_63:\n        /* \"ControllFlow.sol\":1383:1484  while(j >= 1 && a[j-1] > temp) {... */\n      iszero\n      tag_62\n      jumpi\n        /* \"ControllFlow.sol\":1440:1441  a */\n      dup5\n        /* \"ControllFlow.sol\":1444:1445  1 */\n      0x01\n        /* \"ControllFlow.sol\":1442:1443  j */\n      dup3\n        /* \"ControllFlow.sol\":1442:1445  j-1 */\n      tag_68\n      swap2\n      swap1\n      tag_65\n      jump\t// in\n    tag_68:\n        /* \"ControllFlow.sol\":1440:1446  a[j-1] */\n      dup2\n      mload\n      dup2\n      lt\n      tag_69\n      jumpi\n      tag_70\n      tag_60\n      jump\t// in\n    tag_70:\n    tag_69:\n      0x20\n      mul\n      0x20\n      add\n      add\n      mload\n        /* \"ControllFlow.sol\":1433:1434  a */\n      dup6\n        /* \"ControllFlow.sol\":1435:1436  j */\n      dup3\n        /* \"ControllFlow.sol\":1433:1437  a[j] */\n      dup2\n      mload\n      dup2\n      lt\n      tag_71\n      jumpi\n      tag_72\n      tag_60\n      jump\t// in\n    tag_72:\n    tag_71:\n      0x20\n      mul\n      0x20\n      add\n      add\n        /* \"ControllFlow.sol\":1433:1446  a[j] = a[j-1] */\n      dup2\n      dup2\n      mstore\n      pop\n      pop\n        /* \"ControllFlow.sol\":1465:1468  j-- */\n      dup1\n      dup1\n      tag_73\n      swap1\n      tag_74\n      jump\t// in\n    tag_73:\n      swap2\n      pop\n      pop\n        /* \"ControllFlow.sol\":1383:1484  while(j >= 1 && a[j-1] > temp) {... */\n      jump(tag_61)\n    tag_62:\n        /* \"ControllFlow.sol\":1505:1509  temp */\n      dup2\n        /* \"ControllFlow.sol\":1498:1499  a */\n      dup6\n        /* \"ControllFlow.sol\":1500:1501  j */\n      dup3\n        /* \"ControllFlow.sol\":1498:1502  a[j] */\n      dup2\n      mload\n      dup2\n      lt\n      tag_75\n      jumpi\n      tag_76\n      tag_60\n      jump\t// in\n    tag_76:\n    tag_75:\n      0x20\n      mul\n      0x20\n      add\n      add\n        /* \"ControllFlow.sol\":1498:1509  a[j] = temp */\n      dup2\n      dup2\n      mstore\n      pop\n      pop\n        /* \"ControllFlow.sol\":1312:1521  {... */\n      pop\n      pop\n        /* \"ControllFlow.sol\":1307:1310  i++ */\n      dup1\n      dup1\n      0x01\n      add\n      swap2\n      pop\n      pop\n        /* \"ControllFlow.sol\":1276:1521  for (uint i = 1; i < a.length; i++) {... */\n      jump(tag_55)\n    tag_56:\n      pop\n        /* \"ControllFlow.sol\":1538:1539  a */\n      dup2\n        /* \"ControllFlow.sol\":1531:1539  return a */\n      swap1\n      pop\n        /* \"ControllFlow.sol\":1193:1547  function insertSort(uint[] memory a) public pure returns(uint[] memory) {... */\n      swap2\n      swap1\n      pop\n      jump\t// out\n        /* \"ControllFlow.sol\":743:947  function dowhileTest() public pure returns(uint){... */\n    tag_34:\n        /* \"ControllFlow.sol\":786:790  uint */\n      0x00\n        /* \"ControllFlow.sol\":802:810  uint sum */\n      dup1\n        /* \"ControllFlow.sol\":813:814  0 */\n      0x00\n        /* \"ControllFlow.sol\":802:814  uint sum = 0 */\n      swap1\n      pop\n        /* \"ControllFlow.sol\":825:831  uint i */\n      0x00\n        /* \"ControllFlow.sol\":846:915  do{... */\n    tag_78:\n        /* \"ControllFlow.sol\":870:871  i */\n      dup1\n        /* \"ControllFlow.sol\":863:871  sum += i */\n      dup3\n      tag_81\n      swap2\n      swap1\n      tag_43\n      jump\t// in\n    tag_81:\n      swap2\n      pop\n        /* \"ControllFlow.sol\":886:889  i++ */\n      dup1\n      dup1\n      tag_82\n      swap1\n      tag_45\n      jump\t// in\n    tag_82:\n      swap2\n      pop\n      pop\n        /* \"ControllFlow.sol\":911:913  10 */\n      0x0a\n        /* \"ControllFlow.sol\":907:908  i */\n      dup2\n        /* \"ControllFlow.sol\":907:913  i < 10 */\n      lt\n        /* \"ControllFlow.sol\":846:915  do{... */\n      tag_78\n      jumpi\n        /* \"ControllFlow.sol\":935:938  sum */\n      dup2\n        /* \"ControllFlow.sol\":927:939  return (sum) */\n      swap3\n      pop\n      pop\n      pop\n        /* \"ControllFlow.sol\":743:947  function dowhileTest() public pure returns(uint){... */\n      swap1\n      jump\t// out\n        /* \"#utility.yul\":7:82   */\n    tag_83:\n        /* \"#utility.yul\":40:46   */\n      0x00\n        /* \"#utility.yul\":73:75   */\n      0x40\n        /* \"#utility.yul\":67:76   */\n      mload\n        /* \"#utility.yul\":57:76   */\n      swap1\n      pop\n        /* \"#utility.yul\":7:82   */\n      swap1\n      jump\t// out\n        /* \"#utility.yul\":88:205   */\n    tag_84:\n        /* \"#utility.yul\":197:198   */\n      0x00\n        /* \"#utility.yul\":194:195   */\n      dup1\n        /* \"#utility.yul\":187:199   */\n      revert\n        /* \"#utility.yul\":211:328   */\n    tag_85:\n        /* \"#utility.yul\":320:321   */\n      0x00\n        /* \"#utility.yul\":317:318   */\n      dup1\n        /* \"#utility.yul\":310:322   */\n      revert\n        /* \"#utility.yul\":334:411   */\n    tag_86:\n        /* \"#utility.yul\":371:378   */\n      0x00\n        /* \"#utility.yul\":400:405   */\n      dup2\n        /* \"#utility.yul\":389:405   */\n      swap1\n      pop\n        /* \"#utility.yul\":334:411   */\n      swap2\n      swap1\n      pop\n      jump\t// out\n        /* \"#utility.yul\":417:539   */\n    tag_87:\n        /* \"#utility.yul\":490:514   */\n      tag_115\n        /* \"#utility.yul\":508:513   */\n      dup2\n        /* \"#utility.yul\":490:514   */\n      tag_86\n      jump\t// in\n    tag_115:\n        /* \"#utility.yul\":483:488   */\n      dup2\n        /* \"#utility.yul\":480:515   */\n      eq\n        /* \"#utility.yul\":470:533   */\n      tag_116\n      jumpi\n        /* \"#utility.yul\":529:530   */\n      0x00\n        /* \"#utility.yul\":526:527   */\n      dup1\n        /* \"#utility.yul\":519:531   */\n      revert\n        /* \"#utility.yul\":470:533   */\n    tag_116:\n        /* \"#utility.yul\":417:539   */\n      pop\n      jump\t// out\n        /* \"#utility.yul\":545:684   */\n    tag_88:\n        /* \"#utility.yul\":591:596   */\n      0x00\n        /* \"#utility.yul\":629:635   */\n      dup2\n        /* \"#utility.yul\":616:636   */\n      calldataload\n        /* \"#utility.yul\":607:636   */\n      swap1\n      pop\n        /* \"#utility.yul\":645:678   */\n      tag_118\n        /* \"#utility.yul\":672:677   */\n      dup2\n        /* \"#utility.yul\":645:678   */\n      tag_87\n      jump\t// in\n    tag_118:\n        /* \"#utility.yul\":545:684   */\n      swap3\n      swap2\n      pop\n      pop\n      jump\t// out\n        /* \"#utility.yul\":690:1164   */\n    tag_11:\n        /* \"#utility.yul\":758:764   */\n      0x00\n        /* \"#utility.yul\":766:772   */\n      dup1\n        /* \"#utility.yul\":815:817   */\n      0x40\n        /* \"#utility.yul\":803:812   */\n      dup4\n        /* \"#utility.yul\":794:801   */\n      dup6\n        /* \"#utility.yul\":790:813   */\n      sub\n        /* \"#utility.yul\":786:818   */\n      slt\n        /* \"#utility.yul\":783:902   */\n      iszero\n      tag_120\n      jumpi\n        /* \"#utility.yul\":821:900   */\n      tag_121\n      tag_84\n      jump\t// in\n    tag_121:\n        /* \"#utility.yul\":783:902   */\n    tag_120:\n        /* \"#utility.yul\":941:942   */\n      0x00\n        /* \"#utility.yul\":966:1019   */\n      tag_122\n        /* \"#utility.yul\":1011:1018   */\n      dup6\n        /* \"#utility.yul\":1002:1008   */\n      dup3\n        /* \"#utility.yul\":991:1000   */\n      dup7\n        /* \"#utility.yul\":987:1009   */\n      add\n        /* \"#utility.yul\":966:1019   */\n      tag_88\n      jump\t// in\n    tag_122:\n        /* \"#utility.yul\":956:1019   */\n      swap3\n      pop\n        /* \"#utility.yul\":912:1029   */\n      pop\n        /* \"#utility.yul\":1068:1070   */\n      0x20\n        /* \"#utility.yul\":1094:1147   */\n      tag_123\n        /* \"#utility.yul\":1139:1146   */\n      dup6\n        /* \"#utility.yul\":1130:1136   */\n      dup3\n        /* \"#utility.yul\":1119:1128   */\n      dup7\n        /* \"#utility.yul\":1115:1137   */\n      add\n        /* \"#utility.yul\":1094:1147   */\n      tag_88\n      jump\t// in\n    tag_123:\n        /* \"#utility.yul\":1084:1147   */\n      swap2\n      pop\n        /* \"#utility.yul\":1039:1157   */\n      pop\n        /* \"#utility.yul\":690:1164   */\n      swap3\n      pop\n      swap3\n      swap1\n      pop\n      jump\t// out\n        /* \"#utility.yul\":1170:1288   */\n    tag_89:\n        /* \"#utility.yul\":1257:1281   */\n      tag_125\n        /* \"#utility.yul\":1275:1280   */\n      dup2\n        /* \"#utility.yul\":1257:1281   */\n      tag_86\n      jump\t// in\n    tag_125:\n        /* \"#utility.yul\":1252:1255   */\n      dup3\n        /* \"#utility.yul\":1245:1282   */\n      mstore\n        /* \"#utility.yul\":1170:1288   */\n      pop\n      pop\n      jump\t// out\n        /* \"#utility.yul\":1294:1516   */\n    tag_14:\n        /* \"#utility.yul\":1387:1391   */\n      0x00\n        /* \"#utility.yul\":1425:1427   */\n      0x20\n        /* \"#utility.yul\":1414:1423   */\n      dup3\n        /* \"#utility.yul\":1410:1428   */\n      add\n        /* \"#utility.yul\":1402:1428   */\n      swap1\n      pop\n        /* \"#utility.yul\":1438:1509   */\n      tag_127\n        /* \"#utility.yul\":1506:1507   */\n      0x00\n        /* \"#utility.yul\":1495:1504   */\n      dup4\n        /* \"#utility.yul\":1491:1508   */\n      add\n        /* \"#utility.yul\":1482:1488   */\n      dup5\n        /* \"#utility.yul\":1438:1509   */\n      tag_89\n      jump\t// in\n    tag_127:\n        /* \"#utility.yul\":1294:1516   */\n      swap3\n      swap2\n      pop\n      pop\n      jump\t// out\n        /* \"#utility.yul\":1522:1851   */\n    tag_20:\n        /* \"#utility.yul\":1581:1587   */\n      0x00\n        /* \"#utility.yul\":1630:1632   */\n      0x20\n        /* \"#utility.yul\":1618:1627   */\n      dup3\n        /* \"#utility.yul\":1609:1616   */\n      dup5\n        /* \"#utility.yul\":1605:1628   */\n      sub\n        /* \"#utility.yul\":1601:1633   */\n      slt\n        /* \"#utility.yul\":1598:1717   */\n      iszero\n      tag_129\n      jumpi\n        /* \"#utility.yul\":1636:1715   */\n      tag_130\n      tag_84\n      jump\t// in\n    tag_130:\n        /* \"#utility.yul\":1598:1717   */\n    tag_129:\n        /* \"#utility.yul\":1756:1757   */\n      0x00\n        /* \"#utility.yul\":1781:1834   */\n      tag_131\n        /* \"#utility.yul\":1826:1833   */\n      dup5\n        /* \"#utility.yul\":1817:1823   */\n      dup3\n        /* \"#utility.yul\":1806:1815   */\n      dup6\n        /* \"#utility.yul\":1802:1824   */\n      add\n        /* \"#utility.yul\":1781:1834   */\n      tag_88\n      jump\t// in\n    tag_131:\n        /* \"#utility.yul\":1771:1834   */\n      swap2\n      pop\n        /* \"#utility.yul\":1727:1844   */\n      pop\n        /* \"#utility.yul\":1522:1851   */\n      swap3\n      swap2\n      pop\n      pop\n      jump\t// out\n        /* \"#utility.yul\":1857:1947   */\n    tag_90:\n        /* \"#utility.yul\":1891:1898   */\n      0x00\n        /* \"#utility.yul\":1934:1939   */\n      dup2\n        /* \"#utility.yul\":1927:1940   */\n      iszero\n        /* \"#utility.yul\":1920:1941   */\n      iszero\n        /* \"#utility.yul\":1909:1941   */\n      swap1\n      pop\n        /* \"#utility.yul\":1857:1947   */\n      swap2\n      swap1\n      pop\n      jump\t// out\n        /* \"#utility.yul\":1953:2062   */\n    tag_91:\n        /* \"#utility.yul\":2034:2055   */\n      tag_134\n        /* \"#utility.yul\":2049:2054   */\n      dup2\n        /* \"#utility.yul\":2034:2055   */\n      tag_90\n      jump\t// in\n    tag_134:\n        /* \"#utility.yul\":2029:2032   */\n      dup3\n        /* \"#utility.yul\":2022:2056   */\n      mstore\n        /* \"#utility.yul\":1953:2062   */\n      pop\n      pop\n      jump\t// out\n        /* \"#utility.yul\":2068:2278   */\n    tag_23:\n        /* \"#utility.yul\":2155:2159   */\n      0x00\n        /* \"#utility.yul\":2193:2195   */\n      0x20\n        /* \"#utility.yul\":2182:2191   */\n      dup3\n        /* \"#utility.yul\":2178:2196   */\n      add\n        /* \"#utility.yul\":2170:2196   */\n      swap1\n      pop\n        /* \"#utility.yul\":2206:2271   */\n      tag_136\n        /* \"#utility.yul\":2268:2269   */\n      0x00\n        /* \"#utility.yul\":2257:2266   */\n      dup4\n        /* \"#utility.yul\":2253:2270   */\n      add\n        /* \"#utility.yul\":2244:2250   */\n      dup5\n        /* \"#utility.yul\":2206:2271   */\n      tag_91\n      jump\t// in\n    tag_136:\n        /* \"#utility.yul\":2068:2278   */\n      swap3\n      swap2\n      pop\n      pop\n      jump\t// out\n        /* \"#utility.yul\":2284:2401   */\n    tag_92:\n        /* \"#utility.yul\":2393:2394   */\n      0x00\n        /* \"#utility.yul\":2390:2391   */\n      dup1\n        /* \"#utility.yul\":2383:2395   */\n      revert\n        /* \"#utility.yul\":2407:2509   */\n    tag_93:\n        /* \"#utility.yul\":2448:2454   */\n      0x00\n        /* \"#utility.yul\":2499:2501   */\n      0x1f\n        /* \"#utility.yul\":2495:2502   */\n      not\n        /* \"#utility.yul\":2490:2492   */\n      0x1f\n        /* \"#utility.yul\":2483:2488   */\n      dup4\n        /* \"#utility.yul\":2479:2493   */\n      add\n        /* \"#utility.yul\":2475:2503   */\n      and\n        /* \"#utility.yul\":2465:2503   */\n      swap1\n      pop\n        /* \"#utility.yul\":2407:2509   */\n      swap2\n      swap1\n      pop\n      jump\t// out\n        /* \"#utility.yul\":2515:2695   */\n    tag_94:\n        /* \"#utility.yul\":2563:2640   */\n      0x4e487b7100000000000000000000000000000000000000000000000000000000\n        /* \"#utility.yul\":2560:2561   */\n      0x00\n        /* \"#utility.yul\":2553:2641   */\n      mstore\n        /* \"#utility.yul\":2660:2664   */\n      0x41\n        /* \"#utility.yul\":2657:2658   */\n      0x04\n        /* \"#utility.yul\":2650:2665   */\n      mstore\n        /* \"#utility.yul\":2684:2688   */\n      0x24\n        /* \"#utility.yul\":2681:2682   */\n      0x00\n        /* \"#utility.yul\":2674:2689   */\n      revert\n        /* \"#utility.yul\":2701:2982   */\n    tag_95:\n        /* \"#utility.yul\":2784:2811   */\n      tag_141\n        /* \"#utility.yul\":2806:2810   */\n      dup3\n        /* \"#utility.yul\":2784:2811   */\n      tag_93\n      jump\t// in\n    tag_141:\n        /* \"#utility.yul\":2776:2782   */\n      dup2\n        /* \"#utility.yul\":2772:2812   */\n      add\n        /* \"#utility.yul\":2914:2920   */\n      dup2\n        /* \"#utility.yul\":2902:2912   */\n      dup2\n        /* \"#utility.yul\":2899:2921   */\n      lt\n        /* \"#utility.yul\":2878:2896   */\n      0xffffffffffffffff\n        /* \"#utility.yul\":2866:2876   */\n      dup3\n        /* \"#utility.yul\":2863:2897   */\n      gt\n        /* \"#utility.yul\":2860:2922   */\n      or\n        /* \"#utility.yul\":2857:2945   */\n      iszero\n      tag_142\n      jumpi\n        /* \"#utility.yul\":2925:2943   */\n      tag_143\n      tag_94\n      jump\t// in\n    tag_143:\n        /* \"#utility.yul\":2857:2945   */\n    tag_142:\n        /* \"#utility.yul\":2965:2975   */\n      dup1\n        /* \"#utility.yul\":2961:2963   */\n      0x40\n        /* \"#utility.yul\":2954:2976   */\n      mstore\n        /* \"#utility.yul\":2744:2982   */\n      pop\n        /* \"#utility.yul\":2701:2982   */\n      pop\n      pop\n      jump\t// out\n        /* \"#utility.yul\":2988:3117   */\n    tag_96:\n        /* \"#utility.yul\":3022:3028   */\n      0x00\n        /* \"#utility.yul\":3049:3069   */\n      tag_145\n      tag_83\n      jump\t// in\n    tag_145:\n        /* \"#utility.yul\":3039:3069   */\n      swap1\n      pop\n        /* \"#utility.yul\":3078:3111   */\n      tag_146\n        /* \"#utility.yul\":3106:3110   */\n      dup3\n        /* \"#utility.yul\":3098:3104   */\n      dup3\n        /* \"#utility.yul\":3078:3111   */\n      tag_95\n      jump\t// in\n    tag_146:\n        /* \"#utility.yul\":2988:3117   */\n      swap2\n      swap1\n      pop\n      jump\t// out\n        /* \"#utility.yul\":3123:3434   */\n    tag_97:\n        /* \"#utility.yul\":3200:3204   */\n      0x00\n        /* \"#utility.yul\":3290:3308   */\n      0xffffffffffffffff\n        /* \"#utility.yul\":3282:3288   */\n      dup3\n        /* \"#utility.yul\":3279:3309   */\n      gt\n        /* \"#utility.yul\":3276:3332   */\n      iszero\n      tag_148\n      jumpi\n        /* \"#utility.yul\":3312:3330   */\n      tag_149\n      tag_94\n      jump\t// in\n    tag_149:\n        /* \"#utility.yul\":3276:3332   */\n    tag_148:\n        /* \"#utility.yul\":3362:3366   */\n      0x20\n        /* \"#utility.yul\":3354:3360   */\n      dup3\n        /* \"#utility.yul\":3350:3367   */\n      mul\n        /* \"#utility.yul\":3342:3367   */\n      swap1\n      pop\n        /* \"#utility.yul\":3422:3426   */\n      0x20\n        /* \"#utility.yul\":3416:3420   */\n      dup2\n        /* \"#utility.yul\":3412:3427   */\n      add\n        /* \"#utility.yul\":3404:3427   */\n      swap1\n      pop\n        /* \"#utility.yul\":3123:3434   */\n      swap2\n      swap1\n      pop\n      jump\t// out\n        /* \"#utility.yul\":3440:3557   */\n    tag_98:\n        /* \"#utility.yul\":3549:3550   */\n      0x00\n        /* \"#utility.yul\":3546:3547   */\n      dup1\n        /* \"#utility.yul\":3539:3551   */\n      revert\n        /* \"#utility.yul\":3580:4290   */\n    tag_99:\n        /* \"#utility.yul\":3676:3681   */\n      0x00\n        /* \"#utility.yul\":3701:3782   */\n      tag_152\n        /* \"#utility.yul\":3717:3781   */\n      tag_153\n        /* \"#utility.yul\":3774:3780   */\n      dup5\n        /* \"#utility.yul\":3717:3781   */\n      tag_97\n      jump\t// in\n    tag_153:\n        /* \"#utility.yul\":3701:3782   */\n      tag_96\n      jump\t// in\n    tag_152:\n        /* \"#utility.yul\":3692:3782   */\n      swap1\n      pop\n        /* \"#utility.yul\":3802:3807   */\n      dup1\n        /* \"#utility.yul\":3831:3837   */\n      dup4\n        /* \"#utility.yul\":3824:3829   */\n      dup3\n        /* \"#utility.yul\":3817:3838   */\n      mstore\n        /* \"#utility.yul\":3865:3869   */\n      0x20\n        /* \"#utility.yul\":3858:3863   */\n      dup3\n        /* \"#utility.yul\":3854:3870   */\n      add\n        /* \"#utility.yul\":3847:3870   */\n      swap1\n      pop\n        /* \"#utility.yul\":3918:3922   */\n      0x20\n        /* \"#utility.yul\":3910:3916   */\n      dup5\n        /* \"#utility.yul\":3906:3923   */\n      mul\n        /* \"#utility.yul\":3898:3904   */\n      dup4\n        /* \"#utility.yul\":3894:3924   */\n      add\n        /* \"#utility.yul\":3947:3950   */\n      dup6\n        /* \"#utility.yul\":3939:3945   */\n      dup2\n        /* \"#utility.yul\":3936:3951   */\n      gt\n        /* \"#utility.yul\":3933:4055   */\n      iszero\n      tag_154\n      jumpi\n        /* \"#utility.yul\":3966:4045   */\n      tag_155\n      tag_98\n      jump\t// in\n    tag_155:\n        /* \"#utility.yul\":3933:4055   */\n    tag_154:\n        /* \"#utility.yul\":4081:4087   */\n      dup4\n        /* \"#utility.yul\":4064:4284   */\n    tag_156:\n        /* \"#utility.yul\":4098:4104   */\n      dup2\n        /* \"#utility.yul\":4093:4096   */\n      dup2\n        /* \"#utility.yul\":4090:4105   */\n      lt\n        /* \"#utility.yul\":4064:4284   */\n      iszero\n      tag_158\n      jumpi\n        /* \"#utility.yul\":4173:4176   */\n      dup1\n        /* \"#utility.yul\":4202:4239   */\n      tag_159\n        /* \"#utility.yul\":4235:4238   */\n      dup9\n        /* \"#utility.yul\":4223:4233   */\n      dup3\n        /* \"#utility.yul\":4202:4239   */\n      tag_88\n      jump\t// in\n    tag_159:\n        /* \"#utility.yul\":4197:4200   */\n      dup5\n        /* \"#utility.yul\":4190:4240   */\n      mstore\n        /* \"#utility.yul\":4269:4273   */\n      0x20\n        /* \"#utility.yul\":4264:4267   */\n      dup5\n        /* \"#utility.yul\":4260:4274   */\n      add\n        /* \"#utility.yul\":4253:4274   */\n      swap4\n      pop\n        /* \"#utility.yul\":4140:4284   */\n      pop\n        /* \"#utility.yul\":4124:4128   */\n      0x20\n        /* \"#utility.yul\":4119:4122   */\n      dup2\n        /* \"#utility.yul\":4115:4129   */\n      add\n        /* \"#utility.yul\":4108:4129   */\n      swap1\n      pop\n        /* \"#utility.yul\":4064:4284   */\n      jump(tag_156)\n    tag_158:\n        /* \"#utility.yul\":4068:4089   */\n      pop\n        /* \"#utility.yul\":3682:4290   */\n      pop\n      pop\n        /* \"#utility.yul\":3580:4290   */\n      swap4\n      swap3\n      pop\n      pop\n      pop\n      jump\t// out\n        /* \"#utility.yul\":4313:4683   */\n    tag_100:\n        /* \"#utility.yul\":4384:4389   */\n      0x00\n        /* \"#utility.yul\":4433:4436   */\n      dup3\n        /* \"#utility.yul\":4426:4430   */\n      0x1f\n        /* \"#utility.yul\":4418:4424   */\n      dup4\n        /* \"#utility.yul\":4414:4431   */\n      add\n        /* \"#utility.yul\":4410:4437   */\n      slt\n        /* \"#utility.yul\":4400:4522   */\n      tag_161\n      jumpi\n        /* \"#utility.yul\":4441:4520   */\n      tag_162\n      tag_92\n      jump\t// in\n    tag_162:\n        /* \"#utility.yul\":4400:4522   */\n    tag_161:\n        /* \"#utility.yul\":4558:4564   */\n      dup2\n        /* \"#utility.yul\":4545:4565   */\n      calldataload\n        /* \"#utility.yul\":4583:4677   */\n      tag_163\n        /* \"#utility.yul\":4673:4676   */\n      dup5\n        /* \"#utility.yul\":4665:4671   */\n      dup3\n        /* \"#utility.yul\":4658:4662   */\n      0x20\n        /* \"#utility.yul\":4650:4656   */\n      dup7\n        /* \"#utility.yul\":4646:4663   */\n      add\n        /* \"#utility.yul\":4583:4677   */\n      tag_99\n      jump\t// in\n    tag_163:\n        /* \"#utility.yul\":4574:4677   */\n      swap2\n      pop\n        /* \"#utility.yul\":4390:4683   */\n      pop\n        /* \"#utility.yul\":4313:4683   */\n      swap3\n      swap2\n      pop\n      pop\n      jump\t// out\n        /* \"#utility.yul\":4689:5228   */\n    tag_29:\n        /* \"#utility.yul\":4773:4779   */\n      0x00\n        /* \"#utility.yul\":4822:4824   */\n      0x20\n        /* \"#utility.yul\":4810:4819   */\n      dup3\n        /* \"#utility.yul\":4801:4808   */\n      dup5\n        /* \"#utility.yul\":4797:4820   */\n      sub\n        /* \"#utility.yul\":4793:4825   */\n      slt\n        /* \"#utility.yul\":4790:4909   */\n      iszero\n      tag_165\n      jumpi\n        /* \"#utility.yul\":4828:4907   */\n      tag_166\n      tag_84\n      jump\t// in\n    tag_166:\n        /* \"#utility.yul\":4790:4909   */\n    tag_165:\n        /* \"#utility.yul\":4976:4977   */\n      0x00\n        /* \"#utility.yul\":4965:4974   */\n      dup3\n        /* \"#utility.yul\":4961:4978   */\n      add\n        /* \"#utility.yul\":4948:4979   */\n      calldataload\n        /* \"#utility.yul\":5006:5024   */\n      0xffffffffffffffff\n        /* \"#utility.yul\":4998:5004   */\n      dup2\n        /* \"#utility.yul\":4995:5025   */\n      gt\n        /* \"#utility.yul\":4992:5109   */\n      iszero\n      tag_167\n      jumpi\n        /* \"#utility.yul\":5028:5107   */\n      tag_168\n      tag_85\n      jump\t// in\n    tag_168:\n        /* \"#utility.yul\":4992:5109   */\n    tag_167:\n        /* \"#utility.yul\":5133:5211   */\n      tag_169\n        /* \"#utility.yul\":5203:5210   */\n      dup5\n        /* \"#utility.yul\":5194:5200   */\n      dup3\n        /* \"#utility.yul\":5183:5192   */\n      dup6\n        /* \"#utility.yul\":5179:5201   */\n      add\n        /* \"#utility.yul\":5133:5211   */\n      tag_100\n      jump\t// in\n    tag_169:\n        /* \"#utility.yul\":5123:5211   */\n      swap2\n      pop\n        /* \"#utility.yul\":4919:5221   */\n      pop\n        /* \"#utility.yul\":4689:5228   */\n      swap3\n      swap2\n      pop\n      pop\n      jump\t// out\n        /* \"#utility.yul\":5234:5348   */\n    tag_101:\n        /* \"#utility.yul\":5301:5307   */\n      0x00\n        /* \"#utility.yul\":5335:5340   */\n      dup2\n        /* \"#utility.yul\":5329:5341   */\n      mload\n        /* \"#utility.yul\":5319:5341   */\n      swap1\n      pop\n        /* \"#utility.yul\":5234:5348   */\n      swap2\n      swap1\n      pop\n      jump\t// out\n        /* \"#utility.yul\":5354:5538   */\n    tag_102:\n        /* \"#utility.yul\":5453:5464   */\n      0x00\n        /* \"#utility.yul\":5487:5493   */\n      dup3\n        /* \"#utility.yul\":5482:5485   */\n      dup3\n        /* \"#utility.yul\":5475:5494   */\n      mstore\n        /* \"#utility.yul\":5527:5531   */\n      0x20\n        /* \"#utility.yul\":5522:5525   */\n      dup3\n        /* \"#utility.yul\":5518:5532   */\n      add\n        /* \"#utility.yul\":5503:5532   */\n      swap1\n      pop\n        /* \"#utility.yul\":5354:5538   */\n      swap3\n      swap2\n      pop\n      pop\n      jump\t// out\n        /* \"#utility.yul\":5544:5676   */\n    tag_103:\n        /* \"#utility.yul\":5611:5615   */\n      0x00\n        /* \"#utility.yul\":5634:5637   */\n      dup2\n        /* \"#utility.yul\":5626:5637   */\n      swap1\n      pop\n        /* \"#utility.yul\":5664:5668   */\n      0x20\n        /* \"#utility.yul\":5659:5662   */\n      dup3\n        /* \"#utility.yul\":5655:5669   */\n      add\n        /* \"#utility.yul\":5647:5669   */\n      swap1\n      pop\n        /* \"#utility.yul\":5544:5676   */\n      swap2\n      swap1\n      pop\n      jump\t// out\n        /* \"#utility.yul\":5682:5790   */\n    tag_104:\n        /* \"#utility.yul\":5759:5783   */\n      tag_174\n        /* \"#utility.yul\":5777:5782   */\n      dup2\n        /* \"#utility.yul\":5759:5783   */\n      tag_86\n      jump\t// in\n    tag_174:\n        /* \"#utility.yul\":5754:5757   */\n      dup3\n        /* \"#utility.yul\":5747:5784   */\n      mstore\n        /* \"#utility.yul\":5682:5790   */\n      pop\n      pop\n      jump\t// out\n        /* \"#utility.yul\":5796:5975   */\n    tag_105:\n        /* \"#utility.yul\":5865:5875   */\n      0x00\n        /* \"#utility.yul\":5886:5932   */\n      tag_176\n        /* \"#utility.yul\":5928:5931   */\n      dup4\n        /* \"#utility.yul\":5920:5926   */\n      dup4\n        /* \"#utility.yul\":5886:5932   */\n      tag_104\n      jump\t// in\n    tag_176:\n        /* \"#utility.yul\":5964:5968   */\n      0x20\n        /* \"#utility.yul\":5959:5962   */\n      dup4\n        /* \"#utility.yul\":5955:5969   */\n      add\n        /* \"#utility.yul\":5941:5969   */\n      swap1\n      pop\n        /* \"#utility.yul\":5796:5975   */\n      swap3\n      swap2\n      pop\n      pop\n      jump\t// out\n        /* \"#utility.yul\":5981:6094   */\n    tag_106:\n        /* \"#utility.yul\":6051:6055   */\n      0x00\n        /* \"#utility.yul\":6083:6087   */\n      0x20\n        /* \"#utility.yul\":6078:6081   */\n      dup3\n        /* \"#utility.yul\":6074:6088   */\n      add\n        /* \"#utility.yul\":6066:6088   */\n      swap1\n      pop\n        /* \"#utility.yul\":5981:6094   */\n      swap2\n      swap1\n      pop\n      jump\t// out\n        /* \"#utility.yul\":6130:6862   */\n    tag_107:\n        /* \"#utility.yul\":6249:6252   */\n      0x00\n        /* \"#utility.yul\":6278:6332   */\n      tag_179\n        /* \"#utility.yul\":6326:6331   */\n      dup3\n        /* \"#utility.yul\":6278:6332   */\n      tag_101\n      jump\t// in\n    tag_179:\n        /* \"#utility.yul\":6348:6434   */\n      tag_180\n        /* \"#utility.yul\":6427:6433   */\n      dup2\n        /* \"#utility.yul\":6422:6425   */\n      dup6\n        /* \"#utility.yul\":6348:6434   */\n      tag_102\n      jump\t// in\n    tag_180:\n        /* \"#utility.yul\":6341:6434   */\n      swap4\n      pop\n        /* \"#utility.yul\":6458:6514   */\n      tag_181\n        /* \"#utility.yul\":6508:6513   */\n      dup4\n        /* \"#utility.yul\":6458:6514   */\n      tag_103\n      jump\t// in\n    tag_181:\n        /* \"#utility.yul\":6537:6544   */\n      dup1\n        /* \"#utility.yul\":6568:6569   */\n      0x00\n        /* \"#utility.yul\":6553:6837   */\n    tag_182:\n        /* \"#utility.yul\":6578:6584   */\n      dup4\n        /* \"#utility.yul\":6575:6576   */\n      dup2\n        /* \"#utility.yul\":6572:6585   */\n      lt\n        /* \"#utility.yul\":6553:6837   */\n      iszero\n      tag_184\n      jumpi\n        /* \"#utility.yul\":6654:6660   */\n      dup2\n        /* \"#utility.yul\":6648:6661   */\n      mload\n        /* \"#utility.yul\":6681:6744   */\n      tag_185\n        /* \"#utility.yul\":6740:6743   */\n      dup9\n        /* \"#utility.yul\":6725:6738   */\n      dup3\n        /* \"#utility.yul\":6681:6744   */\n      tag_105\n      jump\t// in\n    tag_185:\n        /* \"#utility.yul\":6674:6744   */\n      swap8\n      pop\n        /* \"#utility.yul\":6767:6827   */\n      tag_186\n        /* \"#utility.yul\":6820:6826   */\n      dup4\n        /* \"#utility.yul\":6767:6827   */\n      tag_106\n      jump\t// in\n    tag_186:\n        /* \"#utility.yul\":6757:6827   */\n      swap3\n      pop\n        /* \"#utility.yul\":6613:6837   */\n      pop\n        /* \"#utility.yul\":6600:6601   */\n      0x01\n        /* \"#utility.yul\":6597:6598   */\n      dup2\n        /* \"#utility.yul\":6593:6602   */\n      add\n        /* \"#utility.yul\":6588:6602   */\n      swap1\n      pop\n        /* \"#utility.yul\":6553:6837   */\n      jump(tag_182)\n    tag_184:\n        /* \"#utility.yul\":6557:6571   */\n      pop\n        /* \"#utility.yul\":6853:6856   */\n      dup6\n        /* \"#utility.yul\":6846:6856   */\n      swap4\n      pop\n        /* \"#utility.yul\":6254:6862   */\n      pop\n      pop\n      pop\n        /* \"#utility.yul\":6130:6862   */\n      swap3\n      swap2\n      pop\n      pop\n      jump\t// out\n        /* \"#utility.yul\":6868:7241   */\n    tag_32:\n        /* \"#utility.yul\":7011:7015   */\n      0x00\n        /* \"#utility.yul\":7049:7051   */\n      0x20\n        /* \"#utility.yul\":7038:7047   */\n      dup3\n        /* \"#utility.yul\":7034:7052   */\n      add\n        /* \"#utility.yul\":7026:7052   */\n      swap1\n      pop\n        /* \"#utility.yul\":7098:7107   */\n      dup2\n        /* \"#utility.yul\":7092:7096   */\n      dup2\n        /* \"#utility.yul\":7088:7108   */\n      sub\n        /* \"#utility.yul\":7084:7085   */\n      0x00\n        /* \"#utility.yul\":7073:7082   */\n      dup4\n        /* \"#utility.yul\":7069:7086   */\n      add\n        /* \"#utility.yul\":7062:7109   */\n      mstore\n        /* \"#utility.yul\":7126:7234   */\n      tag_188\n        /* \"#utility.yul\":7229:7233   */\n      dup2\n        /* \"#utility.yul\":7220:7226   */\n      dup5\n        /* \"#utility.yul\":7126:7234   */\n      tag_107\n      jump\t// in\n    tag_188:\n        /* \"#utility.yul\":7118:7234   */\n      swap1\n      pop\n        /* \"#utility.yul\":6868:7241   */\n      swap3\n      swap2\n      pop\n      pop\n      jump\t// out\n        /* \"#utility.yul\":7247:7427   */\n    tag_108:\n        /* \"#utility.yul\":7295:7372   */\n      0x4e487b7100000000000000000000000000000000000000000000000000000000\n        /* \"#utility.yul\":7292:7293   */\n      0x00\n        /* \"#utility.yul\":7285:7373   */\n      mstore\n        /* \"#utility.yul\":7392:7396   */\n      0x11\n        /* \"#utility.yul\":7389:7390   */\n      0x04\n        /* \"#utility.yul\":7382:7397   */\n      mstore\n        /* \"#utility.yul\":7416:7420   */\n      0x24\n        /* \"#utility.yul\":7413:7414   */\n      0x00\n        /* \"#utility.yul\":7406:7421   */\n      revert\n        /* \"#utility.yul\":7433:7624   */\n    tag_43:\n        /* \"#utility.yul\":7473:7476   */\n      0x00\n        /* \"#utility.yul\":7492:7512   */\n      tag_191\n        /* \"#utility.yul\":7510:7511   */\n      dup3\n        /* \"#utility.yul\":7492:7512   */\n      tag_86\n      jump\t// in\n    tag_191:\n        /* \"#utility.yul\":7487:7512   */\n      swap2\n      pop\n        /* \"#utility.yul\":7526:7546   */\n      tag_192\n        /* \"#utility.yul\":7544:7545   */\n      dup4\n        /* \"#utility.yul\":7526:7546   */\n      tag_86\n      jump\t// in\n    tag_192:\n        /* \"#utility.yul\":7521:7546   */\n      swap3\n      pop\n        /* \"#utility.yul\":7569:7570   */\n      dup3\n        /* \"#utility.yul\":7566:7567   */\n      dup3\n        /* \"#utility.yul\":7562:7571   */\n      add\n        /* \"#utility.yul\":7555:7571   */\n      swap1\n      pop\n        /* \"#utility.yul\":7590:7593   */\n      dup1\n        /* \"#utility.yul\":7587:7588   */\n      dup3\n        /* \"#utility.yul\":7584:7594   */\n      gt\n        /* \"#utility.yul\":7581:7617   */\n      iszero\n      tag_193\n      jumpi\n        /* \"#utility.yul\":7597:7615   */\n      tag_194\n      tag_108\n      jump\t// in\n    tag_194:\n        /* \"#utility.yul\":7581:7617   */\n    tag_193:\n        /* \"#utility.yul\":7433:7624   */\n      swap3\n      swap2\n      pop\n      pop\n      jump\t// out\n        /* \"#utility.yul\":7630:7863   */\n    tag_45:\n        /* \"#utility.yul\":7669:7672   */\n      0x00\n        /* \"#utility.yul\":7692:7716   */\n      tag_196\n        /* \"#utility.yul\":7710:7715   */\n      dup3\n        /* \"#utility.yul\":7692:7716   */\n      tag_86\n      jump\t// in\n    tag_196:\n        /* \"#utility.yul\":7683:7716   */\n      swap2\n      pop\n        /* \"#utility.yul\":7738:7804   */\n      0xffffffffffffffffffffffffffffffffffffffffffffffffffffffffffffffff\n        /* \"#utility.yul\":7731:7736   */\n      dup3\n        /* \"#utility.yul\":7728:7805   */\n      sub\n        /* \"#utility.yul\":7725:7828   */\n      tag_197\n      jumpi\n        /* \"#utility.yul\":7808:7826   */\n      tag_198\n      tag_108\n      jump\t// in\n    tag_198:\n        /* \"#utility.yul\":7725:7828   */\n    tag_197:\n        /* \"#utility.yul\":7855:7856   */\n      0x01\n        /* \"#utility.yul\":7848:7853   */\n      dup3\n        /* \"#utility.yul\":7844:7857   */\n      add\n        /* \"#utility.yul\":7837:7857   */\n      swap1\n      pop\n        /* \"#utility.yul\":7630:7863   */\n      swap2\n      swap1\n      pop\n      jump\t// out\n        /* \"#utility.yul\":7869:8049   */\n    tag_60:\n        /* \"#utility.yul\":7917:7994   */\n      0x4e487b7100000000000000000000000000000000000000000000000000000000\n        /* \"#utility.yul\":7914:7915   */\n      0x00\n        /* \"#utility.yul\":7907:7995   */\n      mstore\n        /* \"#utility.yul\":8014:8018   */\n      0x32\n        /* \"#utility.yul\":8011:8012   */\n      0x04\n        /* \"#utility.yul\":8004:8019   */\n      mstore\n        /* \"#utility.yul\":8038:8042   */\n      0x24\n        /* \"#utility.yul\":8035:8036   */\n      0x00\n        /* \"#utility.yul\":8028:8043   */\n      revert\n        /* \"#utility.yul\":8055:8249   */\n    tag_65:\n        /* \"#utility.yul\":8095:8099   */\n      0x00\n        /* \"#utility.yul\":8115:8135   */\n      tag_201\n        /* \"#utility.yul\":8133:8134   */\n      dup3\n        /* \"#utility.yul\":8115:8135   */\n      tag_86\n      jump\t// in\n    tag_201:\n        /* \"#utility.yul\":8110:8135   */\n      swap2\n      pop\n        /* \"#utility.yul\":8149:8169   */\n      tag_202\n        /* \"#utility.yul\":8167:8168   */\n      dup4\n        /* \"#utility.yul\":8149:8169   */\n      tag_86\n      jump\t// in\n    tag_202:\n        /* \"#utility.yul\":8144:8169   */\n      swap3\n      pop\n        /* \"#utility.yul\":8193:8194   */\n      dup3\n        /* \"#utility.yul\":8190:8191   */\n      dup3\n        /* \"#utility.yul\":8186:8195   */\n      sub\n        /* \"#utility.yul\":8178:8195   */\n      swap1\n      pop\n        /* \"#utility.yul\":8217:8218   */\n      dup2\n        /* \"#utility.yul\":8211:8215   */\n      dup2\n        /* \"#utility.yul\":8208:8219   */\n      gt\n        /* \"#utility.yul\":8205:8242   */\n      iszero\n      tag_203\n      jumpi\n        /* \"#utility.yul\":8222:8240   */\n      tag_204\n      tag_108\n      jump\t// in\n    tag_204:\n        /* \"#utility.yul\":8205:8242   */\n    tag_203:\n        /* \"#utility.yul\":8055:8249   */\n      swap3\n      swap2\n      pop\n      pop\n      jump\t// out\n        /* \"#utility.yul\":8255:8426   */\n    tag_74:\n        /* \"#utility.yul\":8294:8297   */\n      0x00\n        /* \"#utility.yul\":8317:8341   */\n      tag_206\n        /* \"#utility.yul\":8335:8340   */\n      dup3\n        /* \"#utility.yul\":8317:8341   */\n      tag_86\n      jump\t// in\n    tag_206:\n        /* \"#utility.yul\":8308:8341   */\n      swap2\n      pop\n        /* \"#utility.yul\":8363:8367   */\n      0x00\n        /* \"#utility.yul\":8356:8361   */\n      dup3\n        /* \"#utility.yul\":8353:8368   */\n      sub\n        /* \"#utility.yul\":8350:8391   */\n      tag_207\n      jumpi\n        /* \"#utility.yul\":8371:8389   */\n      tag_208\n      tag_108\n      jump\t// in\n    tag_208:\n        /* \"#utility.yul\":8350:8391   */\n    tag_207:\n        /* \"#utility.yul\":8418:8419   */\n      0x01\n        /* \"#utility.yul\":8411:8416   */\n      dup3\n        /* \"#utility.yul\":8407:8420   */\n      sub\n        /* \"#utility.yul\":8400:8420   */\n      swap1\n      pop\n        /* \"#utility.yul\":8255:8426   */\n      swap2\n      swap1\n      pop\n      jump\t// out\n\n    auxdata: 0xa264697066735822122020c71cc8278bc881a0e03e2fa78f56ef7611beae5fdc274cabded60199b8707864736f6c634300081a0033\n}\n",
				"bytecode": {
					"linkReferences": {},
					"object": "6080604052348015600e575f80fd5b506107fb8061001c5f395ff3fe608060405234801561000f575f80fd5b5060043610610060575f3560e01c806328766320146100645780635d14639d146100945780636f4a5a1a146100b2578063b0cfa9fc146100e2578063b23d97f214610100578063d4271de514610130575b5f80fd5b61007e60048036038101906100799190610365565b61014e565b60405161008b91906103b2565b60405180910390f35b61009c610167565b6040516100a991906103b2565b60405180910390f35b6100cc60048036038101906100c791906103cb565b6101a0565b6040516100d99190610410565b60405180910390f35b6100ea6101ba565b6040516100f791906103b2565b60405180910390f35b61011a60048036038101906101159190610579565b6101ee565b6040516101279190610677565b60405180910390f35b6101386102ee565b60405161014591906103b2565b60405180910390f35b5f8183101561015d578161015f565b825b905092915050565b5f805f90505f5b600a81101561019857808261018391906106c4565b91508080610190906106f7565b91505061016e565b819250505090565b5f8082036101b157600190506101b5565b5f90505b919050565b5f805f90505f5b600a8110156101e6576001826101d791906106c4565b915080806001019150506101c1565b508091505090565b60605f600190505b82518110156102e5575f8382815181106102135761021261073e565b5b602002602001015190505f8290505b600181101580156102585750818560018361023d919061076b565b8151811061024e5761024d61073e565b5b6020026020010151115b156102b6578460018261026b919061076b565b8151811061027c5761027b61073e565b5b60200260200101518582815181106102975761029661073e565b5b60200260200101818152505080806102ae9061079e565b915050610222565b818582815181106102ca576102c961073e565b5b602002602001018181525050505080806001019150506101f6565b50819050919050565b5f805f90505f5b808261030191906106c4565b9150808061030e906106f7565b915050600a81106102f557819250505090565b5f604051905090565b5f80fd5b5f80fd5b5f819050919050565b61034481610332565b811461034e575f80fd5b50565b5f8135905061035f8161033b565b92915050565b5f806040838503121561037b5761037a61032a565b5b5f61038885828601610351565b925050602061039985828601610351565b9150509250929050565b6103ac81610332565b82525050565b5f6020820190506103c55f8301846103a3565b92915050565b5f602082840312156103e0576103df61032a565b5b5f6103ed84828501610351565b91505092915050565b5f8115159050919050565b61040a816103f6565b82525050565b5f6020820190506104235f830184610401565b92915050565b5f80fd5b5f601f19601f8301169050919050565b7f4e487b71000000000000000000000000000000000000000000000000000000005f52604160045260245ffd5b6104738261042d565b810181811067ffffffffffffffff821117156104925761049161043d565b5b80604052505050565b5f6104a4610321565b90506104b0828261046a565b919050565b5f67ffffffffffffffff8211156104cf576104ce61043d565b5b602082029050602081019050919050565b5f80fd5b5f6104f66104f1846104b5565b61049b565b90508083825260208201905060208402830185811115610519576105186104e0565b5b835b81811015610542578061052e8882610351565b84526020840193505060208101905061051b565b5050509392505050565b5f82601f8301126105605761055f610429565b5b81356105708482602086016104e4565b91505092915050565b5f6020828403121561058e5761058d61032a565b5b5f82013567ffffffffffffffff8111156105ab576105aa61032e565b5b6105b78482850161054c565b91505092915050565b5f81519050919050565b5f82825260208201905092915050565b5f819050602082019050919050565b6105f281610332565b82525050565b5f61060383836105e9565b60208301905092915050565b5f602082019050919050565b5f610625826105c0565b61062f81856105ca565b935061063a836105da565b805f5b8381101561066a57815161065188826105f8565b975061065c8361060f565b92505060018101905061063d565b5085935050505092915050565b5f6020820190508181035f83015261068f818461061b565b905092915050565b7f4e487b71000000000000000000000000000000000000000000000000000000005f52601160045260245ffd5b5f6106ce82610332565b91506106d983610332565b92508282019050808211156106f1576106f0610697565b5b92915050565b5f61070182610332565b91507fffffffffffffffffffffffffffffffffffffffffffffffffffffffffffffffff820361073357610732610697565b5b600182019050919050565b7f4e487b71000000000000000000000000000000000000000000000000000000005f52603260045260245ffd5b5f61077582610332565b915061078083610332565b925082820390508181111561079857610797610697565b5b92915050565b5f6107a882610332565b91505f82036107ba576107b9610697565b5b60018203905091905056fea264697066735822122020c71cc8278bc881a0e03e2fa78f56ef7611beae5fdc274cabded60199b8707864736f6c634300081a0033",
					"opcodes": "PUSH1 0x80 PUSH1 0x40 MSTORE CALLVALUE DUP1 ISZERO PUSH1 0xE JUMPI PUSH0 DUP1 REVERT JUMPDEST POP PUSH2 0x7FB DUP1 PUSH2 0x1C PUSH0 CODECOPY PUSH0 RETURN INVALID PUSH1 0x80 PUSH1 0x40 MSTORE CALLVALUE DUP1 ISZERO PUSH2 0xF JUMPI PUSH0 DUP1 REVERT JUMPDEST POP PUSH1 0x4 CALLDATASIZE LT PUSH2 0x60 JUMPI PUSH0 CALLDATALOAD PUSH1 0xE0 SHR DUP1 PUSH4 0x28766320 EQ PUSH2 0x64 JUMPI DUP1 PUSH4 0x5D14639D EQ PUSH2 0x94 JUMPI DUP1 PUSH4 0x6F4A5A1A EQ PUSH2 0xB2 JUMPI DUP1 PUSH4 0xB0CFA9FC EQ PUSH2 0xE2 JUMPI DUP1 PUSH4 0xB23D97F2 EQ PUSH2 0x100 JUMPI DUP1 PUSH4 0xD4271DE5 EQ PUSH2 0x130 JUMPI JUMPDEST PUSH0 DUP1 REVERT JUMPDEST PUSH2 0x7E PUSH1 0x4 DUP1 CALLDATASIZE SUB DUP2 ADD SWAP1 PUSH2 0x79 SWAP2 SWAP1 PUSH2 0x365 JUMP JUMPDEST PUSH2 0x14E JUMP JUMPDEST PUSH1 0x40 MLOAD PUSH2 0x8B SWAP2 SWAP1 PUSH2 0x3B2 JUMP JUMPDEST PUSH1 0x40 MLOAD DUP1 SWAP2 SUB SWAP1 RETURN JUMPDEST PUSH2 0x9C PUSH2 0x167 JUMP JUMPDEST PUSH1 0x40 MLOAD PUSH2 0xA9 SWAP2 SWAP1 PUSH2 0x3B2 JUMP JUMPDEST PUSH1 0x40 MLOAD DUP1 SWAP2 SUB SWAP1 RETURN JUMPDEST PUSH2 0xCC PUSH1 0x4 DUP1 CALLDATASIZE SUB DUP2 ADD SWAP1 PUSH2 0xC7 SWAP2 SWAP1 PUSH2 0x3CB JUMP JUMPDEST PUSH2 0x1A0 JUMP JUMPDEST PUSH1 0x40 MLOAD PUSH2 0xD9 SWAP2 SWAP1 PUSH2 0x410 JUMP JUMPDEST PUSH1 0x40 MLOAD DUP1 SWAP2 SUB SWAP1 RETURN JUMPDEST PUSH2 0xEA PUSH2 0x1BA JUMP JUMPDEST PUSH1 0x40 MLOAD PUSH2 0xF7 SWAP2 SWAP1 PUSH2 0x3B2 JUMP JUMPDEST PUSH1 0x40 MLOAD DUP1 SWAP2 SUB SWAP1 RETURN JUMPDEST PUSH2 0x11A PUSH1 0x4 DUP1 CALLDATASIZE SUB DUP2 ADD SWAP1 PUSH2 0x115 SWAP2 SWAP1 PUSH2 0x579 JUMP JUMPDEST PUSH2 0x1EE JUMP JUMPDEST PUSH1 0x40 MLOAD PUSH2 0x127 SWAP2 SWAP1 PUSH2 0x677 JUMP JUMPDEST PUSH1 0x40 MLOAD DUP1 SWAP2 SUB SWAP1 RETURN JUMPDEST PUSH2 0x138 PUSH2 0x2EE JUMP JUMPDEST PUSH1 0x40 MLOAD PUSH2 0x145 SWAP2 SWAP1 PUSH2 0x3B2 JUMP JUMPDEST PUSH1 0x40 MLOAD DUP1 SWAP2 SUB SWAP1 RETURN JUMPDEST PUSH0 DUP2 DUP4 LT ISZERO PUSH2 0x15D JUMPI DUP2 PUSH2 0x15F JUMP JUMPDEST DUP3 JUMPDEST SWAP1 POP SWAP3 SWAP2 POP POP JUMP JUMPDEST PUSH0 DUP1 PUSH0 SWAP1 POP PUSH0 JUMPDEST PUSH1 0xA DUP2 LT ISZERO PUSH2 0x198 JUMPI DUP1 DUP3 PUSH2 0x183 SWAP2 SWAP1 PUSH2 0x6C4 JUMP JUMPDEST SWAP2 POP DUP1 DUP1 PUSH2 0x190 SWAP1 PUSH2 0x6F7 JUMP JUMPDEST SWAP2 POP POP PUSH2 0x16E JUMP JUMPDEST DUP2 SWAP3 POP POP POP SWAP1 JUMP JUMPDEST PUSH0 DUP1 DUP3 SUB PUSH2 0x1B1 JUMPI PUSH1 0x1 SWAP1 POP PUSH2 0x1B5 JUMP JUMPDEST PUSH0 SWAP1 POP JUMPDEST SWAP2 SWAP1 POP JUMP JUMPDEST PUSH0 DUP1 PUSH0 SWAP1 POP PUSH0 JUMPDEST PUSH1 0xA DUP2 LT ISZERO PUSH2 0x1E6 JUMPI PUSH1 0x1 DUP3 PUSH2 0x1D7 SWAP2 SWAP1 PUSH2 0x6C4 JUMP JUMPDEST SWAP2 POP DUP1 DUP1 PUSH1 0x1 ADD SWAP2 POP POP PUSH2 0x1C1 JUMP JUMPDEST POP DUP1 SWAP2 POP POP SWAP1 JUMP JUMPDEST PUSH1 0x60 PUSH0 PUSH1 0x1 SWAP1 POP JUMPDEST DUP3 MLOAD DUP2 LT ISZERO PUSH2 0x2E5 JUMPI PUSH0 DUP4 DUP3 DUP2 MLOAD DUP2 LT PUSH2 0x213 JUMPI PUSH2 0x212 PUSH2 0x73E JUMP JUMPDEST JUMPDEST PUSH1 0x20 MUL PUSH1 0x20 ADD ADD MLOAD SWAP1 POP PUSH0 DUP3 SWAP1 POP JUMPDEST PUSH1 0x1 DUP2 LT ISZERO DUP1 ISZERO PUSH2 0x258 JUMPI POP DUP2 DUP6 PUSH1 0x1 DUP4 PUSH2 0x23D SWAP2 SWAP1 PUSH2 0x76B JUMP JUMPDEST DUP2 MLOAD DUP2 LT PUSH2 0x24E JUMPI PUSH2 0x24D PUSH2 0x73E JUMP JUMPDEST JUMPDEST PUSH1 0x20 MUL PUSH1 0x20 ADD ADD MLOAD GT JUMPDEST ISZERO PUSH2 0x2B6 JUMPI DUP5 PUSH1 0x1 DUP3 PUSH2 0x26B SWAP2 SWAP1 PUSH2 0x76B JUMP JUMPDEST DUP2 MLOAD DUP2 LT PUSH2 0x27C JUMPI PUSH2 0x27B PUSH2 0x73E JUMP JUMPDEST JUMPDEST PUSH1 0x20 MUL PUSH1 0x20 ADD ADD MLOAD DUP6 DUP3 DUP2 MLOAD DUP2 LT PUSH2 0x297 JUMPI PUSH2 0x296 PUSH2 0x73E JUMP JUMPDEST JUMPDEST PUSH1 0x20 MUL PUSH1 0x20 ADD ADD DUP2 DUP2 MSTORE POP POP DUP1 DUP1 PUSH2 0x2AE SWAP1 PUSH2 0x79E JUMP JUMPDEST SWAP2 POP POP PUSH2 0x222 JUMP JUMPDEST DUP2 DUP6 DUP3 DUP2 MLOAD DUP2 LT PUSH2 0x2CA JUMPI PUSH2 0x2C9 PUSH2 0x73E JUMP JUMPDEST JUMPDEST PUSH1 0x20 MUL PUSH1 0x20 ADD ADD DUP2 DUP2 MSTORE POP POP POP POP DUP1 DUP1 PUSH1 0x1 ADD SWAP2 POP POP PUSH2 0x1F6 JUMP JUMPDEST POP DUP2 SWAP1 POP SWAP2 SWAP1 POP JUMP JUMPDEST PUSH0 DUP1 PUSH0 SWAP1 POP PUSH0 JUMPDEST DUP1 DUP3 PUSH2 0x301 SWAP2 SWAP1 PUSH2 0x6C4 JUMP JUMPDEST SWAP2 POP DUP1 DUP1 PUSH2 0x30E SWAP1 PUSH2 0x6F7 JUMP JUMPDEST SWAP2 POP POP PUSH1 0xA DUP2 LT PUSH2 0x2F5 JUMPI DUP2 SWAP3 POP POP POP SWAP1 JUMP JUMPDEST PUSH0 PUSH1 0x40 MLOAD SWAP1 POP SWAP1 JUMP JUMPDEST PUSH0 DUP1 REVERT JUMPDEST PUSH0 DUP1 REVERT JUMPDEST PUSH0 DUP2 SWAP1 POP SWAP2 SWAP1 POP JUMP JUMPDEST PUSH2 0x344 DUP2 PUSH2 0x332 JUMP JUMPDEST DUP2 EQ PUSH2 0x34E JUMPI PUSH0 DUP1 REVERT JUMPDEST POP JUMP JUMPDEST PUSH0 DUP2 CALLDATALOAD SWAP1 POP PUSH2 0x35F DUP2 PUSH2 0x33B JUMP JUMPDEST SWAP3 SWAP2 POP POP JUMP JUMPDEST PUSH0 DUP1 PUSH1 0x40 DUP4 DUP6 SUB SLT ISZERO PUSH2 0x37B JUMPI PUSH2 0x37A PUSH2 0x32A JUMP JUMPDEST JUMPDEST PUSH0 PUSH2 0x388 DUP6 DUP3 DUP7 ADD PUSH2 0x351 JUMP JUMPDEST SWAP3 POP POP PUSH1 0x20 PUSH2 0x399 DUP6 DUP3 DUP7 ADD PUSH2 0x351 JUMP JUMPDEST SWAP2 POP POP SWAP3 POP SWAP3 SWAP1 POP JUMP JUMPDEST PUSH2 0x3AC DUP2 PUSH2 0x332 JUMP JUMPDEST DUP3 MSTORE POP POP JUMP JUMPDEST PUSH0 PUSH1 0x20 DUP3 ADD SWAP1 POP PUSH2 0x3C5 PUSH0 DUP4 ADD DUP5 PUSH2 0x3A3 JUMP JUMPDEST SWAP3 SWAP2 POP POP JUMP JUMPDEST PUSH0 PUSH1 0x20 DUP3 DUP5 SUB SLT ISZERO PUSH2 0x3E0 JUMPI PUSH2 0x3DF PUSH2 0x32A JUMP JUMPDEST JUMPDEST PUSH0 PUSH2 0x3ED DUP5 DUP3 DUP6 ADD PUSH2 0x351 JUMP JUMPDEST SWAP2 POP POP SWAP3 SWAP2 POP POP JUMP JUMPDEST PUSH0 DUP2 ISZERO ISZERO SWAP1 POP SWAP2 SWAP1 POP JUMP JUMPDEST PUSH2 0x40A DUP2 PUSH2 0x3F6 JUMP JUMPDEST DUP3 MSTORE POP POP JUMP JUMPDEST PUSH0 PUSH1 0x20 DUP3 ADD SWAP1 POP PUSH2 0x423 PUSH0 DUP4 ADD DUP5 PUSH2 0x401 JUMP JUMPDEST SWAP3 SWAP2 POP POP JUMP JUMPDEST PUSH0 DUP1 REVERT JUMPDEST PUSH0 PUSH1 0x1F NOT PUSH1 0x1F DUP4 ADD AND SWAP1 POP SWAP2 SWAP1 POP JUMP JUMPDEST PUSH32 0x4E487B7100000000000000000000000000000000000000000000000000000000 PUSH0 MSTORE PUSH1 0x41 PUSH1 0x4 MSTORE PUSH1 0x24 PUSH0 REVERT JUMPDEST PUSH2 0x473 DUP3 PUSH2 0x42D JUMP JUMPDEST DUP2 ADD DUP2 DUP2 LT PUSH8 0xFFFFFFFFFFFFFFFF DUP3 GT OR ISZERO PUSH2 0x492 JUMPI PUSH2 0x491 PUSH2 0x43D JUMP JUMPDEST JUMPDEST DUP1 PUSH1 0x40 MSTORE POP POP POP JUMP JUMPDEST PUSH0 PUSH2 0x4A4 PUSH2 0x321 JUMP JUMPDEST SWAP1 POP PUSH2 0x4B0 DUP3 DUP3 PUSH2 0x46A JUMP JUMPDEST SWAP2 SWAP1 POP JUMP JUMPDEST PUSH0 PUSH8 0xFFFFFFFFFFFFFFFF DUP3 GT ISZERO PUSH2 0x4CF JUMPI PUSH2 0x4CE PUSH2 0x43D JUMP JUMPDEST JUMPDEST PUSH1 0x20 DUP3 MUL SWAP1 POP PUSH1 0x20 DUP2 ADD SWAP1 POP SWAP2 SWAP1 POP JUMP JUMPDEST PUSH0 DUP1 REVERT JUMPDEST PUSH0 PUSH2 0x4F6 PUSH2 0x4F1 DUP5 PUSH2 0x4B5 JUMP JUMPDEST PUSH2 0x49B JUMP JUMPDEST SWAP1 POP DUP1 DUP4 DUP3 MSTORE PUSH1 0x20 DUP3 ADD SWAP1 POP PUSH1 0x20 DUP5 MUL DUP4 ADD DUP6 DUP2 GT ISZERO PUSH2 0x519 JUMPI PUSH2 0x518 PUSH2 0x4E0 JUMP JUMPDEST JUMPDEST DUP4 JUMPDEST DUP2 DUP2 LT ISZERO PUSH2 0x542 JUMPI DUP1 PUSH2 0x52E DUP9 DUP3 PUSH2 0x351 JUMP JUMPDEST DUP5 MSTORE PUSH1 0x20 DUP5 ADD SWAP4 POP POP PUSH1 0x20 DUP2 ADD SWAP1 POP PUSH2 0x51B JUMP JUMPDEST POP POP POP SWAP4 SWAP3 POP POP POP JUMP JUMPDEST PUSH0 DUP3 PUSH1 0x1F DUP4 ADD SLT PUSH2 0x560 JUMPI PUSH2 0x55F PUSH2 0x429 JUMP JUMPDEST JUMPDEST DUP2 CALLDATALOAD PUSH2 0x570 DUP5 DUP3 PUSH1 0x20 DUP7 ADD PUSH2 0x4E4 JUMP JUMPDEST SWAP2 POP POP SWAP3 SWAP2 POP POP JUMP JUMPDEST PUSH0 PUSH1 0x20 DUP3 DUP5 SUB SLT ISZERO PUSH2 0x58E JUMPI PUSH2 0x58D PUSH2 0x32A JUMP JUMPDEST JUMPDEST PUSH0 DUP3 ADD CALLDATALOAD PUSH8 0xFFFFFFFFFFFFFFFF DUP2 GT ISZERO PUSH2 0x5AB JUMPI PUSH2 0x5AA PUSH2 0x32E JUMP JUMPDEST JUMPDEST PUSH2 0x5B7 DUP5 DUP3 DUP6 ADD PUSH2 0x54C JUMP JUMPDEST SWAP2 POP POP SWAP3 SWAP2 POP POP JUMP JUMPDEST PUSH0 DUP2 MLOAD SWAP1 POP SWAP2 SWAP1 POP JUMP JUMPDEST PUSH0 DUP3 DUP3 MSTORE PUSH1 0x20 DUP3 ADD SWAP1 POP SWAP3 SWAP2 POP POP JUMP JUMPDEST PUSH0 DUP2 SWAP1 POP PUSH1 0x20 DUP3 ADD SWAP1 POP SWAP2 SWAP1 POP JUMP JUMPDEST PUSH2 0x5F2 DUP2 PUSH2 0x332 JUMP JUMPDEST DUP3 MSTORE POP POP JUMP JUMPDEST PUSH0 PUSH2 0x603 DUP4 DUP4 PUSH2 0x5E9 JUMP JUMPDEST PUSH1 0x20 DUP4 ADD SWAP1 POP SWAP3 SWAP2 POP POP JUMP JUMPDEST PUSH0 PUSH1 0x20 DUP3 ADD SWAP1 POP SWAP2 SWAP1 POP JUMP JUMPDEST PUSH0 PUSH2 0x625 DUP3 PUSH2 0x5C0 JUMP JUMPDEST PUSH2 0x62F DUP2 DUP6 PUSH2 0x5CA JUMP JUMPDEST SWAP4 POP PUSH2 0x63A DUP4 PUSH2 0x5DA JUMP JUMPDEST DUP1 PUSH0 JUMPDEST DUP4 DUP2 LT ISZERO PUSH2 0x66A JUMPI DUP2 MLOAD PUSH2 0x651 DUP9 DUP3 PUSH2 0x5F8 JUMP JUMPDEST SWAP8 POP PUSH2 0x65C DUP4 PUSH2 0x60F JUMP JUMPDEST SWAP3 POP POP PUSH1 0x1 DUP2 ADD SWAP1 POP PUSH2 0x63D JUMP JUMPDEST POP DUP6 SWAP4 POP POP POP POP SWAP3 SWAP2 POP POP JUMP JUMPDEST PUSH0 PUSH1 0x20 DUP3 ADD SWAP1 POP DUP2 DUP2 SUB PUSH0 DUP4 ADD MSTORE PUSH2 0x68F DUP2 DUP5 PUSH2 0x61B JUMP JUMPDEST SWAP1 POP SWAP3 SWAP2 POP POP JUMP JUMPDEST PUSH32 0x4E487B7100000000000000000000000000000000000000000000000000000000 PUSH0 MSTORE PUSH1 0x11 PUSH1 0x4 MSTORE PUSH1 0x24 PUSH0 REVERT JUMPDEST PUSH0 PUSH2 0x6CE DUP3 PUSH2 0x332 JUMP JUMPDEST SWAP2 POP PUSH2 0x6D9 DUP4 PUSH2 0x332 JUMP JUMPDEST SWAP3 POP DUP3 DUP3 ADD SWAP1 POP DUP1 DUP3 GT ISZERO PUSH2 0x6F1 JUMPI PUSH2 0x6F0 PUSH2 0x697 JUMP JUMPDEST JUMPDEST SWAP3 SWAP2 POP POP JUMP JUMPDEST PUSH0 PUSH2 0x701 DUP3 PUSH2 0x332 JUMP JUMPDEST SWAP2 POP PUSH32 0xFFFFFFFFFFFFFFFFFFFFFFFFFFFFFFFFFFFFFFFFFFFFFFFFFFFFFFFFFFFFFFFF DUP3 SUB PUSH2 0x733 JUMPI PUSH2 0x732 PUSH2 0x697 JUMP JUMPDEST JUMPDEST PUSH1 0x1 DUP3 ADD SWAP1 POP SWAP2 SWAP1 POP JUMP JUMPDEST PUSH32 0x4E487B7100000000000000000000000000000000000000000000000000000000 PUSH0 MSTORE PUSH1 0x32 PUSH1 0x4 MSTORE PUSH1 0x24 PUSH0 REVERT JUMPDEST PUSH0 PUSH2 0x775 DUP3 PUSH2 0x332 JUMP JUMPDEST SWAP2 POP PUSH2 0x780 DUP4 PUSH2 0x332 JUMP JUMPDEST SWAP3 POP DUP3 DUP3 SUB SWAP1 POP DUP2 DUP2 GT ISZERO PUSH2 0x798 JUMPI PUSH2 0x797 PUSH2 0x697 JUMP JUMPDEST JUMPDEST SWAP3 SWAP2 POP POP JUMP JUMPDEST PUSH0 PUSH2 0x7A8 DUP3 PUSH2 0x332 JUMP JUMPDEST SWAP2 POP PUSH0 DUP3 SUB PUSH2 0x7BA JUMPI PUSH2 0x7B9 PUSH2 0x697 JUMP JUMPDEST JUMPDEST PUSH1 0x1 DUP3 SUB SWAP1 POP SWAP2 SWAP1 POP JUMP INVALID LOG2 PUSH5 0x6970667358 0x22 SLT KECCAK256 KECCAK256 0xC7 SHR 0xC8 0x27 DUP12 0xC8 DUP2 LOG0 0xE0 RETURNDATACOPY 0x2F 0xA7 DUP16 JUMP 0xEF PUSH23 0x11BEAE5FDC274CABDED60199B8707864736F6C63430008 BYTE STOP CALLER "
				},
				"gasEstimates": {
					"creation": {
						"codeDepositCost": "408600",
						"executionCost": "441",
						"totalCost": "409041"
					},
					"external": {
						"dowhileTest()": "infinite",
						"forLoopTest()": "infinite",
						"ifelseTest(uint256)": "655",
						"insertSort(uint256[])": "infinite",
						"ternaryTest(uint256,uint256)": "infinite",
						"whileTest()": "infinite"
					}
				},
				"methodIdentifiers": {
					"dowhileTest()": "d4271de5",
					"forLoopTest()": "b0cfa9fc",
					"ifelseTest(uint256)": "6f4a5a1a",
					"insertSort(uint256[])": "b23d97f2",
					"ternaryTest(uint256,uint256)": "28766320",
					"whileTest()": "5d14639d"
				}
			},
			"storageLayout": {
				"storage": [],
				"types": null
			},
			"userdoc": {
				"kind": "user",
				"methods": {},
				"version": 1
			}
		}
	}
}